{
  "_format": "hh-sol-artifact-1",
  "contractName": "SimpleQuantumWallet",
  "sourceName": "contracts/SimpleQuantumWallet.sol",
  "abi": [
    {
      "anonymous": false,
      "inputs": [
        {
          "indexed": true,
          "internalType": "address",
          "name": "user",
          "type": "address"
        },
        {
          "indexed": false,
          "internalType": "uint256",
          "name": "expiry",
          "type": "uint256"
        }
      ],
      "name": "SessionCreated",
      "type": "event"
    },
    {
      "anonymous": false,
      "inputs": [
        {
          "indexed": true,
          "internalType": "address",
          "name": "user",
          "type": "address"
        },
        {
          "indexed": true,
          "internalType": "address",
          "name": "to",
          "type": "address"
        },
        {
          "indexed": false,
          "internalType": "uint256",
          "name": "amount",
          "type": "uint256"
        }
      ],
      "name": "TransactionValidated",
      "type": "event"
    },
    {
      "inputs": [
        {
          "internalType": "bytes32",
          "name": "proofHash",
          "type": "bytes32"
        },
        {
          "internalType": "uint256",
          "name": "duration",
          "type": "uint256"
        }
      ],
      "name": "createSession",
      "outputs": [],
      "stateMutability": "nonpayable",
      "type": "function"
    },
    {
      "inputs": [
        {
          "internalType": "address",
          "name": "user",
          "type": "address"
        }
      ],
      "name": "getSession",
      "outputs": [
        {
          "components": [
            {
              "internalType": "bytes32",
              "name": "proofHash",
              "type": "bytes32"
            },
            {
              "internalType": "uint256",
              "name": "expiry",
              "type": "uint256"
            },
            {
              "internalType": "bool",
              "name": "active",
              "type": "bool"
            }
          ],
          "internalType": "struct SimpleQuantumWallet.Session",
          "name": "",
          "type": "tuple"
        }
      ],
      "stateMutability": "view",
      "type": "function"
    },
    {
      "inputs": [
        {
          "internalType": "address",
          "name": "",
          "type": "address"
        }
      ],
      "name": "sessions",
      "outputs": [
        {
          "internalType": "bytes32",
          "name": "proofHash",
          "type": "bytes32"
        },
        {
          "internalType": "uint256",
          "name": "expiry",
          "type": "uint256"
        },
        {
          "internalType": "bool",
          "name": "active",
          "type": "bool"
        }
      ],
      "stateMutability": "view",
      "type": "function"
    },
    {
      "inputs": [
        {
          "internalType": "address",
          "name": "to",
          "type": "address"
        },
        {
          "internalType": "uint256",
          "name": "amount",
          "type": "uint256"
        },
        {
          "internalType": "bytes32",
          "name": "txHash",
          "type": "bytes32"
        }
      ],
      "name": "validateTransaction",
      "outputs": [
        {
          "internalType": "bool",
          "name": "",
          "type": "bool"
        }
      ],
      "stateMutability": "view",
      "type": "function"
    }
  ],
  "bytecode": "0x608060405234801561001057600080fd5b50610832806100206000396000f3fe608060405234801561001057600080fd5b506004361061004c5760003560e01c8063431a1b97146100515780638c8e13b914610083578063d0cb51cc146100b3578063fa6dec9a146100cf575b600080fd5b61006b60048036038101906100669190610454565b6100ff565b60405161007a939291906104ce565b60405180910390f35b61009d60048036038101906100989190610454565b610136565b6040516100aa9190610574565b60405180910390f35b6100cd60048036038101906100c891906105e7565b6101bd565b005b6100e960048036038101906100e49190610627565b6102b8565b6040516100f6919061067a565b60405180910390f35b60006020528060005260406000206000915090508060000154908060010154908060020160009054906101000a900460ff16905083565b61013e6103cb565b6000808373ffffffffffffffffffffffffffffffffffffffff1673ffffffffffffffffffffffffffffffffffffffff16815260200190815260200160002060405180606001604052908160008201548152602001600182015481526020016002820160009054906101000a900460ff1615151515815250509050919050565b604051806060016040528083815260200182426101da91906106c4565b8152602001600115158152506000803373ffffffffffffffffffffffffffffffffffffffff1673ffffffffffffffffffffffffffffffffffffffff168152602001908152602001600020600082015181600001556020820151816001015560408201518160020160006101000a81548160ff0219169083151502179055509050503373ffffffffffffffffffffffffffffffffffffffff167fbb0fc5e96176e5f20f7e8333844ede297a6b31fd8e5d7cb8e63ae181b6d6a804824261029f91906106c4565b6040516102ac91906106f8565b60405180910390a25050565b6000806000803373ffffffffffffffffffffffffffffffffffffffff1673ffffffffffffffffffffffffffffffffffffffff16815260200190815260200160002060405180606001604052908160008201548152602001600182015481526020016002820160009054906101000a900460ff16151515158152505090508060400151610379576040517f08c379a000000000000000000000000000000000000000000000000000000000815260040161037090610770565b60405180910390fd5b806020015142106103bf576040517f08c379a00000000000000000000000000000000000000000000000000000000081526004016103b6906107dc565b60405180910390fd5b60019150509392505050565b604051806060016040528060008019168152602001600081526020016000151581525090565b600080fd5b600073ffffffffffffffffffffffffffffffffffffffff82169050919050565b6000610421826103f6565b9050919050565b61043181610416565b811461043c57600080fd5b50565b60008135905061044e81610428565b92915050565b60006020828403121561046a576104696103f1565b5b60006104788482850161043f565b91505092915050565b6000819050919050565b61049481610481565b82525050565b6000819050919050565b6104ad8161049a565b82525050565b60008115159050919050565b6104c8816104b3565b82525050565b60006060820190506104e3600083018661048b565b6104f060208301856104a4565b6104fd60408301846104bf565b949350505050565b61050e81610481565b82525050565b61051d8161049a565b82525050565b61052c816104b3565b82525050565b6060820160008201516105486000850182610505565b50602082015161055b6020850182610514565b50604082015161056e6040850182610523565b50505050565b60006060820190506105896000830184610532565b92915050565b61059881610481565b81146105a357600080fd5b50565b6000813590506105b58161058f565b92915050565b6105c48161049a565b81146105cf57600080fd5b50565b6000813590506105e1816105bb565b92915050565b600080604083850312156105fe576105fd6103f1565b5b600061060c858286016105a6565b925050602061061d858286016105d2565b9150509250929050565b6000806000606084860312156106405761063f6103f1565b5b600061064e8682870161043f565b935050602061065f868287016105d2565b9250506040610670868287016105a6565b9150509250925092565b600060208201905061068f60008301846104bf565b92915050565b7f4e487b7100000000000000000000000000000000000000000000000000000000600052601160045260246000fd5b60006106cf8261049a565b91506106da8361049a565b92508282019050808211156106f2576106f1610695565b5b92915050565b600060208201905061070d60008301846104a4565b92915050565b600082825260208201905092915050565b7f4e6f206163746976652073657373696f6e000000000000000000000000000000600082015250565b600061075a601183610713565b915061076582610724565b602082019050919050565b600060208201905081810360008301526107898161074d565b9050919050565b7f53657373696f6e20657870697265640000000000000000000000000000000000600082015250565b60006107c6600f83610713565b91506107d182610790565b602082019050919050565b600060208201905081810360008301526107f5816107b9565b905091905056fea26469706673582212206e9ec3fc6aa5cc79750a4ef6eb90d5a1d8269b3b7281542bc09f7a50c350d21764736f6c63430008130033",
  "linkReferences": {},
  "deployedLinkReferences": {}
}