{"abi":[{"type":"function","name":"createWallet","inputs":[],"outputs":[{"name":"wallet","type":"address","internalType":"address"}],"stateMutability":"nonpayable"},{"type":"function","name":"walletOf","inputs":[{"name":"","type":"address","internalType":"address"}],"outputs":[{"name":"","type":"address","internalType":"address"}],"stateMutability":"view"},{"type":"event","name":"WalletCreated","inputs":[{"name":"owner","type":"address","indexed":true,"internalType":"address"},{"name":"wallet","type":"address","indexed":false,"internalType":"address"}],"anonymous":false}],"bytecode":{"object":"0x608060405234801561000f575f80fd5b506113468061001d5f395ff3fe608060405234801561000f575f80fd5b5060043610610034575f3560e01c806311ebbf24146100385780631982640c14610056575b5f80fd5b610040610086565b60405161004d91906102c9565b60405180910390f35b610070600480360381019061006b9190610310565b61024e565b60405161007d91906102c9565b60405180910390f35b5f8073ffffffffffffffffffffffffffffffffffffffff165f803373ffffffffffffffffffffffffffffffffffffffff1673ffffffffffffffffffffffffffffffffffffffff1681526020019081526020015f205f9054906101000a900473ffffffffffffffffffffffffffffffffffffffff1673ffffffffffffffffffffffffffffffffffffffff1614610150576040517f08c379a000000000000000000000000000000000000000000000000000000000815260040161014790610395565b60405180910390fd5b3360405161015d9061027d565b61016791906102c9565b604051809103905ff080158015610180573d5f803e3d5ffd5b509050805f803373ffffffffffffffffffffffffffffffffffffffff1673ffffffffffffffffffffffffffffffffffffffff1681526020019081526020015f205f6101000a81548173ffffffffffffffffffffffffffffffffffffffff021916908373ffffffffffffffffffffffffffffffffffffffff1602179055503373ffffffffffffffffffffffffffffffffffffffff167f5b03bfed1c14a02bdeceb5fa582eb1a5765fc0bc64ca0e6af4c20afc9487f0818260405161024391906102c9565b60405180910390a290565b5f602052805f5260405f205f915054906101000a900473ffffffffffffffffffffffffffffffffffffffff1681565b610f5d806103b483390190565b5f73ffffffffffffffffffffffffffffffffffffffff82169050919050565b5f6102b38261028a565b9050919050565b6102c3816102a9565b82525050565b5f6020820190506102dc5f8301846102ba565b92915050565b5f80fd5b6102ef816102a9565b81146102f9575f80fd5b50565b5f8135905061030a816102e6565b92915050565b5f60208284031215610325576103246102e2565b5b5f610332848285016102fc565b91505092915050565b5f82825260208201905092915050565b7f616c7265616479206861732077616c6c657400000000000000000000000000005f82015250565b5f61037f60128361033b565b915061038a8261034b565b602082019050919050565b5f6020820190508181035f8301526103ac81610373565b905091905056fe608060405234801561000f575f80fd5b50604051610f5d380380610f5d833981810160405281019061003191906100d4565b805f806101000a81548173ffffffffffffffffffffffffffffffffffffffff021916908373ffffffffffffffffffffffffffffffffffffffff160217905550506100ff565b5f80fd5b5f73ffffffffffffffffffffffffffffffffffffffff82169050919050565b5f6100a38261007a565b9050919050565b6100b381610099565b81146100bd575f80fd5b50565b5f815190506100ce816100aa565b92915050565b5f602082840312156100e9576100e8610076565b5b5f6100f6848285016100c0565b91505092915050565b610e518061010c5f395ff3fe608060405260043610610058575f3560e01c80630809941c146100635780634baf19651461009f57806358fe4af1146100c75780637895a152146101035780638da5cb5b14610133578063f2fde38b1461015d5761005f565b3661005f57005b5f80fd5b34801561006e575f80fd5b50610089600480360381019061008491906105fb565b610185565b604051610096919061063e565b60405180910390f35b3480156100aa575f80fd5b506100c560048036038101906100c091906106ee565b610190565b005b3480156100d2575f80fd5b506100ed60048036038101906100e8919061077f565b6102aa565b6040516100fa9190610834565b60405180910390f35b61011d60048036038101906101189190610854565b610345565b60405161012a9190610834565b60405180910390f35b34801561013e575f80fd5b506101476104a7565b60405161015491906108f4565b60405180910390f35b348015610168575f80fd5b50610183600480360381019061017e91906105fb565b6104ca565b005b5f6001549050919050565b5f8054906101000a900473ffffffffffffffffffffffffffffffffffffffff1673ffffffffffffffffffffffffffffffffffffffff163373ffffffffffffffffffffffffffffffffffffffff161461021d576040517f08c379a000000000000000000000000000000000000000000000000000000000815260040161021490610967565b60405180910390fd5b610a2061ffff168484905014801561023d57506111f561ffff1682829050145b61027c576040517f08c379a0000000000000000000000000000000000000000000000000000000008152600401610273906109cf565b60405180910390fd5b838360025f8860ff1660ff1681526020019081526020015f2091826102a2929190610c1e565b505050505050565b6002602052805f5260405f205f9150905080546102c690610a51565b80601f01602080910402602001604051908101604052809291908181526020018280546102f290610a51565b801561033d5780601f106103145761010080835404028352916020019161033d565b820191905f5260205f20905b81548152906001019060200180831161032057829003601f168201915b505050505081565b60605f8054906101000a900473ffffffffffffffffffffffffffffffffffffffff1673ffffffffffffffffffffffffffffffffffffffff163373ffffffffffffffffffffffffffffffffffffffff16146103d4576040517f08c379a00000000000000000000000000000000000000000000000000000000081526004016103cb90610967565b60405180910390fd5b60015f8154809291906103e690610d18565b91905055505f808773ffffffffffffffffffffffffffffffffffffffff16348888604051610415929190610d9b565b5f6040518083038185875af1925050503d805f811461044f576040519150601f19603f3d011682016040523d82523d5f602084013e610454565b606091505b509150915081610499576040517f08c379a000000000000000000000000000000000000000000000000000000000815260040161049090610dfd565b60405180910390fd5b809250505095945050505050565b5f8054906101000a900473ffffffffffffffffffffffffffffffffffffffff1681565b5f8054906101000a900473ffffffffffffffffffffffffffffffffffffffff1673ffffffffffffffffffffffffffffffffffffffff163373ffffffffffffffffffffffffffffffffffffffff1614610557576040517f08c379a000000000000000000000000000000000000000000000000000000000815260040161054e90610967565b60405180910390fd5b805f806101000a81548173ffffffffffffffffffffffffffffffffffffffff021916908373ffffffffffffffffffffffffffffffffffffffff16021790555050565b5f80fd5b5f80fd5b5f73ffffffffffffffffffffffffffffffffffffffff82169050919050565b5f6105ca826105a1565b9050919050565b6105da816105c0565b81146105e4575f80fd5b50565b5f813590506105f5816105d1565b92915050565b5f602082840312156106105761060f610599565b5b5f61061d848285016105e7565b91505092915050565b5f819050919050565b61063881610626565b82525050565b5f6020820190506106515f83018461062f565b92915050565b5f60ff82169050919050565b61066c81610657565b8114610676575f80fd5b50565b5f8135905061068781610663565b92915050565b5f80fd5b5f80fd5b5f80fd5b5f8083601f8401126106ae576106ad61068d565b5b8235905067ffffffffffffffff8111156106cb576106ca610691565b5b6020830191508360018202830111156106e7576106e6610695565b5b9250929050565b5f805f805f6060868803121561070757610706610599565b5b5f61071488828901610679565b955050602086013567ffffffffffffffff8111156107355761073461059d565b5b61074188828901610699565b9450945050604086013567ffffffffffffffff8111156107645761076361059d565b5b61077088828901610699565b92509250509295509295909350565b5f6020828403121561079457610793610599565b5b5f6107a184828501610679565b91505092915050565b5f81519050919050565b5f82825260208201905092915050565b5f5b838110156107e15780820151818401526020810190506107c6565b5f8484015250505050565b5f601f19601f8301169050919050565b5f610806826107aa565b61081081856107b4565b93506108208185602086016107c4565b610829816107ec565b840191505092915050565b5f6020820190508181035f83015261084c81846107fc565b905092915050565b5f805f805f6060868803121561086d5761086c610599565b5b5f61087a888289016105e7565b955050602086013567ffffffffffffffff81111561089b5761089a61059d565b5b6108a788828901610699565b9450945050604086013567ffffffffffffffff8111156108ca576108c961059d565b5b6108d688828901610699565b92509250509295509295909350565b6108ee816105c0565b82525050565b5f6020820190506109075f8301846108e5565b92915050565b5f82825260208201905092915050565b7f6f6e6c79206f776e6572000000000000000000000000000000000000000000005f82015250565b5f610951600a8361090d565b915061095c8261091d565b602082019050919050565b5f6020820190508181035f83015261097e81610945565b9050919050565b7f626164206c656e677468000000000000000000000000000000000000000000005f82015250565b5f6109b9600a8361090d565b91506109c482610985565b602082019050919050565b5f6020820190508181035f8301526109e6816109ad565b9050919050565b5f82905092915050565b7f4e487b71000000000000000000000000000000000000000000000000000000005f52604160045260245ffd5b7f4e487b71000000000000000000000000000000000000000000000000000000005f52602260045260245ffd5b5f6002820490506001821680610a6857607f821691505b602082108103610a7b57610a7a610a24565b5b50919050565b5f819050815f5260205f209050919050565b5f6020601f8301049050919050565b5f82821b905092915050565b5f60088302610add7fffffffffffffffffffffffffffffffffffffffffffffffffffffffffffffffff82610aa2565b610ae78683610aa2565b95508019841693508086168417925050509392505050565b5f819050919050565b5f610b22610b1d610b1884610626565b610aff565b610626565b9050919050565b5f819050919050565b610b3b83610b08565b610b4f610b4782610b29565b848454610aae565b825550505050565b5f90565b610b63610b57565b610b6e818484610b32565b505050565b5b81811015610b9157610b865f82610b5b565b600181019050610b74565b5050565b601f821115610bd657610ba781610a81565b610bb084610a93565b81016020851015610bbf578190505b610bd3610bcb85610a93565b830182610b73565b50505b505050565b5f82821c905092915050565b5f610bf65f1984600802610bdb565b1980831691505092915050565b5f610c0e8383610be7565b9150826002028217905092915050565b610c2883836109ed565b67ffffffffffffffff811115610c4157610c406109f7565b5b610c4b8254610a51565b610c56828285610b95565b5f601f831160018114610c83575f8415610c71578287013590505b610c7b8582610c03565b865550610ce2565b601f198416610c9186610a81565b5f5b82811015610cb857848901358255600182019150602085019450602081019050610c93565b86831015610cd55784890135610cd1601f891682610be7565b8355505b6001600288020188555050505b50505050505050565b7f4e487b71000000000000000000000000000000000000000000000000000000005f52601160045260245ffd5b5f610d2282610626565b91507fffffffffffffffffffffffffffffffffffffffffffffffffffffffffffffffff8203610d5457610d53610ceb565b5b600182019050919050565b5f81905092915050565b828183375f83830152505050565b5f610d828385610d5f565b9350610d8f838584610d69565b82840190509392505050565b5f610da7828486610d77565b91508190509392505050565b7f6c6f772d6c6576656c2063616c6c206661696c656400000000000000000000005f82015250565b5f610de760158361090d565b9150610df282610db3565b602082019050919050565b5f6020820190508181035f830152610e1481610ddb565b905091905056fea2646970667358221220a28fc53a9c4f95448fa042a9480582ac68fa614e2c174e9b244a025c9759e36a64736f6c63430008140033a2646970667358221220352f3d72982916490c80c28e6e25f6db36c0fe06f896d235d7f0f38c4df9618564736f6c63430008140033","linkReferences":{}},"methodIdentifiers":{"createWallet()":"11ebbf24","walletOf(address)":"1982640c"},"id":1}