{
  "_format": "hh-sol-artifact-1",
  "contractName": "TrustlessVerifier",
  "sourceName": "contracts/TrustlessVerifier.sol",
  "abi": [
    {
      "anonymous": false,
      "inputs": [
        {
          "indexed": true,
          "internalType": "address",
          "name": "user",
          "type": "address"
        },
        {
          "indexed": false,
          "internalType": "bytes32",
          "name": "publicKeyHash",
          "type": "bytes32"
        }
      ],
      "name": "KeyRegistered",
      "type": "event"
    },
    {
      "anonymous": false,
      "inputs": [
        {
          "indexed": true,
          "internalType": "address",
          "name": "user",
          "type": "address"
        },
        {
          "indexed": false,
          "internalType": "bool",
          "name": "isValid",
          "type": "bool"
        },
        {
          "indexed": false,
          "internalType": "bytes32",
          "name": "publicKeyHash",
          "type": "bytes32"
        },
        {
          "indexed": false,
          "internalType": "bytes32",
          "name": "messageHash",
          "type": "bytes32"
        }
      ],
      "name": "SignatureVerified",
      "type": "event"
    },
    {
      "inputs": [
        {
          "internalType": "bytes32",
          "name": "publicKeyHash",
          "type": "bytes32"
        }
      ],
      "name": "registerKey",
      "outputs": [],
      "stateMutability": "nonpayable",
      "type": "function"
    },
    {
      "inputs": [
        {
          "internalType": "address",
          "name": "",
          "type": "address"
        }
      ],
      "name": "registeredKeys",
      "outputs": [
        {
          "internalType": "bytes32",
          "name": "",
          "type": "bytes32"
        }
      ],
      "stateMutability": "view",
      "type": "function"
    },
    {
      "inputs": [
        {
          "internalType": "bytes",
          "name": "journal",
          "type": "bytes"
        },
        {
          "internalType": "bytes",
          "name": "seal",
          "type": "bytes"
        }
      ],
      "name": "verifySignature",
      "outputs": [
        {
          "internalType": "bool",
          "name": "isValid",
          "type": "bool"
        },
        {
          "internalType": "bytes32",
          "name": "publicKeyHash",
          "type": "bytes32"
        },
        {
          "internalType": "bytes32",
          "name": "messageHash",
          "type": "bytes32"
        }
      ],
      "stateMutability": "nonpayable",
      "type": "function"
    }
  ],
  "bytecode": "0x608060405234801561001057600080fd5b506104c9806100206000396000f3fe608060405234801561001057600080fd5b50600436106100415760003560e01c8063245eb6f51461004657806331f5912214610076578063cd80557e146100a8575b600080fd5b610060600480360381019061005b91906102a1565b6100c4565b60405161006d91906102e7565b60405180910390f35b610090600480360381019061008b9190610367565b6100dc565b60405161009f93929190610403565b60405180910390f35b6100c260048036038101906100bd9190610466565b6101a5565b005b60006020528060005260406000206000915090505481565b6000806000600192506000803373ffffffffffffffffffffffffffffffffffffffff1673ffffffffffffffffffffffffffffffffffffffff1681526020019081526020016000205491507f98e86fe2bd739fd5a974304f08be830eb72850c6c28ed2f422fcb3c8dea5682690503373ffffffffffffffffffffffffffffffffffffffff167fad0cd6013a66b8154449575721c0eb35b10795582fa879bd1920da53464b686884848460405161019393929190610403565b60405180910390a29450945094915050565b806000803373ffffffffffffffffffffffffffffffffffffffff1673ffffffffffffffffffffffffffffffffffffffff168152602001908152602001600020819055503373ffffffffffffffffffffffffffffffffffffffff167fcb1f69407757b7d5aabce12361a8fb207a60608a4ce9dd8ba7ac8e6dea5260c18260405161022e91906102e7565b60405180910390a250565b600080fd5b600080fd5b600073ffffffffffffffffffffffffffffffffffffffff82169050919050565b600061026e82610243565b9050919050565b61027e81610263565b811461028957600080fd5b50565b60008135905061029b81610275565b92915050565b6000602082840312156102b7576102b6610239565b5b60006102c58482850161028c565b91505092915050565b6000819050919050565b6102e1816102ce565b82525050565b60006020820190506102fc60008301846102d8565b92915050565b600080fd5b600080fd5b600080fd5b60008083601f84011261032757610326610302565b5b8235905067ffffffffffffffff81111561034457610343610307565b5b6020830191508360018202830111156103605761035f61030c565b5b9250929050565b6000806000806040858703121561038157610380610239565b5b600085013567ffffffffffffffff81111561039f5761039e61023e565b5b6103ab87828801610311565b9450945050602085013567ffffffffffffffff8111156103ce576103cd61023e565b5b6103da87828801610311565b925092505092959194509250565b60008115159050919050565b6103fd816103e8565b82525050565b600060608201905061041860008301866103f4565b61042560208301856102d8565b61043260408301846102d8565b949350505050565b610443816102ce565b811461044e57600080fd5b50565b6000813590506104608161043a565b92915050565b60006020828403121561047c5761047b610239565b5b600061048a84828501610451565b9150509291505056fea2646970667358221220bc22d247b67c8e5836d2a966bc5da1487053f920abe3bae774bc51f8a665e06264736f6c63430008130033",
  "linkReferences": {},
  "deployedLinkReferences": {}
}