{
  "_format": "hh-sol-artifact-1",
  "contractName": "TrustlessVerifier",
  "sourceName": "contracts/TrustlessVerifier.sol",
  "abi": [
    {
      "anonymous": false,
      "inputs": [
        {
          "indexed": true,
          "internalType": "address",
          "name": "user",
          "type": "address"
        },
        {
          "indexed": false,
          "internalType": "bytes32",
          "name": "publicKeyHash",
          "type": "bytes32"
        }
      ],
      "name": "KeyRegistered",
      "type": "event"
    },
    {
      "anonymous": false,
      "inputs": [
        {
          "indexed": true,
          "internalType": "address",
          "name": "user",
          "type": "address"
        },
        {
          "indexed": false,
          "internalType": "bool",
          "name": "isValid",
          "type": "bool"
        },
        {
          "indexed": false,
          "internalType": "bytes32",
          "name": "publicKeyHash",
          "type": "bytes32"
        },
        {
          "indexed": false,
          "internalType": "bytes32",
          "name": "messageHash",
          "type": "bytes32"
        }
      ],
      "name": "SignatureVerified",
      "type": "event"
    },
    {
      "inputs": [
        {
          "internalType": "bytes32",
          "name": "publicKeyHash",
          "type": "bytes32"
        }
      ],
      "name": "registerKey",
      "outputs": [],
      "stateMutability": "nonpayable",
      "type": "function"
    },
    {
      "inputs": [
        {
          "internalType": "address",
          "name": "",
          "type": "address"
        }
      ],
      "name": "registeredKeys",
      "outputs": [
        {
          "internalType": "bytes32",
          "name": "",
          "type": "bytes32"
        }
      ],
      "stateMutability": "view",
      "type": "function"
    },
    {
      "inputs": [
        {
          "internalType": "bytes",
          "name": "journal",
          "type": "bytes"
        },
        {
          "internalType": "bytes",
          "name": "seal",
          "type": "bytes"
        }
      ],
      "name": "verifySignature",
      "outputs": [
        {
          "internalType": "bool",
          "name": "isValid",
          "type": "bool"
        },
        {
          "internalType": "bytes32",
          "name": "publicKeyHash",
          "type": "bytes32"
        },
        {
          "internalType": "bytes32",
          "name": "messageHash",
          "type": "bytes32"
        }
      ],
      "stateMutability": "nonpayable",
      "type": "function"
    }
  ],
  "bytecode": "0x608060405234801561001057600080fd5b506107aa806100206000396000f3fe608060405234801561001057600080fd5b50600436106100415760003560e01c8063245eb6f51461004657806331f5912214610076578063cd80557e146100a8575b600080fd5b610060600480360381019061005b9190610371565b6100c4565b60405161006d91906103b7565b60405180910390f35b610090600480360381019061008b9190610437565b6100dc565b60405161009f939291906104d3565b60405180910390f35b6100c260048036038101906100bd9190610536565b610275565b005b60006020528060005260406000206000915090505481565b60008060008060003373ffffffffffffffffffffffffffffffffffffffff1673ffffffffffffffffffffffffffffffffffffffff1681526020019081526020016000205491506000801b8203610167576040517f08c379a000000000000000000000000000000000000000000000000000000000815260040161015e906105c0565b60405180910390fd5b600085859050116101ad576040517f08c379a00000000000000000000000000000000000000000000000000000000081526004016101a49061062c565b60405180910390fd5b6001925060208787905010156101f8576040517f08c379a00000000000000000000000000000000000000000000000000000000081526004016101ef90610698565b60405180910390fd5b868660009060209261020c939291906106c2565b906102179190610715565b90503373ffffffffffffffffffffffffffffffffffffffff167fad0cd6013a66b8154449575721c0eb35b10795582fa879bd1920da53464b6868848484604051610263939291906104d3565b60405180910390a29450945094915050565b806000803373ffffffffffffffffffffffffffffffffffffffff1673ffffffffffffffffffffffffffffffffffffffff168152602001908152602001600020819055503373ffffffffffffffffffffffffffffffffffffffff167fcb1f69407757b7d5aabce12361a8fb207a60608a4ce9dd8ba7ac8e6dea5260c1826040516102fe91906103b7565b60405180910390a250565b600080fd5b600080fd5b600073ffffffffffffffffffffffffffffffffffffffff82169050919050565b600061033e82610313565b9050919050565b61034e81610333565b811461035957600080fd5b50565b60008135905061036b81610345565b92915050565b60006020828403121561038757610386610309565b5b60006103958482850161035c565b91505092915050565b6000819050919050565b6103b18161039e565b82525050565b60006020820190506103cc60008301846103a8565b92915050565b600080fd5b600080fd5b600080fd5b60008083601f8401126103f7576103f66103d2565b5b8235905067ffffffffffffffff811115610414576104136103d7565b5b6020830191508360018202830111156104305761042f6103dc565b5b9250929050565b6000806000806040858703121561045157610450610309565b5b600085013567ffffffffffffffff81111561046f5761046e61030e565b5b61047b878288016103e1565b9450945050602085013567ffffffffffffffff81111561049e5761049d61030e565b5b6104aa878288016103e1565b925092505092959194509250565b60008115159050919050565b6104cd816104b8565b82525050565b60006060820190506104e860008301866104c4565b6104f560208301856103a8565b61050260408301846103a8565b949350505050565b6105138161039e565b811461051e57600080fd5b50565b6000813590506105308161050a565b92915050565b60006020828403121561054c5761054b610309565b5b600061055a84828501610521565b91505092915050565b600082825260208201905092915050565b7f4e6f2072656769737465726564206b6579000000000000000000000000000000600082015250565b60006105aa601183610563565b91506105b582610574565b602082019050919050565b600060208201905081810360008301526105d98161059d565b9050919050565b7f456d707479207365616c00000000000000000000000000000000000000000000600082015250565b6000610616600a83610563565b9150610621826105e0565b602082019050919050565b6000602082019050818103600083015261064581610609565b9050919050565b7f496e76616c6964206a6f75726e616c206c656e67746800000000000000000000600082015250565b6000610682601683610563565b915061068d8261064c565b602082019050919050565b600060208201905081810360008301526106b181610675565b9050919050565b600080fd5b600080fd5b600080858511156106d6576106d56106b8565b5b838611156106e7576106e66106bd565b5b6001850283019150848603905094509492505050565b600082905092915050565b600082821b905092915050565b600061072183836106fd565b8261072c813561039e565b9250602082101561076c576107677fffffffffffffffffffffffffffffffffffffffffffffffffffffffffffffffff83602003600802610708565b831692505b50509291505056fea26469706673582212201b6979ff19429b09374b517af7d320f7cc9ae5ff434e349621771187c34a6ff864736f6c63430008130033",
  "linkReferences": {},
  "deployedLinkReferences": {}
}