{
  "_format": "hh-sol-artifact-1",
  "contractName": "QuantumSafeWallet",
  "sourceName": "contracts/QuantumSafeWallet.sol",
  "abi": [
    {
      "inputs": [
        {
          "internalType": "address",
          "name": "_verifier",
          "type": "address"
        },
        {
          "internalType": "bytes32",
          "name": "_dilithiumImageId",
          "type": "bytes32"
        }
      ],
      "stateMutability": "nonpayable",
      "type": "constructor"
    },
    {
      "anonymous": false,
      "inputs": [
        {
          "indexed": true,
          "internalType": "address",
          "name": "user",
          "type": "address"
        },
        {
          "indexed": false,
          "internalType": "uint256",
          "name": "expiry",
          "type": "uint256"
        }
      ],
      "name": "SessionCreated",
      "type": "event"
    },
    {
      "anonymous": false,
      "inputs": [
        {
          "indexed": true,
          "internalType": "address",
          "name": "user",
          "type": "address"
        },
        {
          "indexed": true,
          "internalType": "address",
          "name": "to",
          "type": "address"
        },
        {
          "indexed": false,
          "internalType": "uint256",
          "name": "amount",
          "type": "uint256"
        }
      ],
      "name": "TransactionValidated",
      "type": "event"
    },
    {
      "inputs": [
        {
          "internalType": "bytes32",
          "name": "journal",
          "type": "bytes32"
        },
        {
          "internalType": "bytes",
          "name": "seal",
          "type": "bytes"
        },
        {
          "internalType": "uint256",
          "name": "duration",
          "type": "uint256"
        }
      ],
      "name": "createSession",
      "outputs": [],
      "stateMutability": "nonpayable",
      "type": "function"
    },
    {
      "inputs": [],
      "name": "dilithiumImageId",
      "outputs": [
        {
          "internalType": "bytes32",
          "name": "",
          "type": "bytes32"
        }
      ],
      "stateMutability": "view",
      "type": "function"
    },
    {
      "inputs": [
        {
          "internalType": "address payable",
          "name": "to",
          "type": "address"
        },
        {
          "internalType": "uint256",
          "name": "amount",
          "type": "uint256"
        },
        {
          "internalType": "bytes32",
          "name": "txHash",
          "type": "bytes32"
        }
      ],
      "name": "executeTransaction",
      "outputs": [],
      "stateMutability": "nonpayable",
      "type": "function"
    },
    {
      "inputs": [
        {
          "internalType": "address",
          "name": "user",
          "type": "address"
        }
      ],
      "name": "getSession",
      "outputs": [
        {
          "components": [
            {
              "internalType": "bytes32",
              "name": "proofJournal",
              "type": "bytes32"
            },
            {
              "internalType": "bytes32",
              "name": "proofSeal",
              "type": "bytes32"
            },
            {
              "internalType": "uint256",
              "name": "expiry",
              "type": "uint256"
            },
            {
              "internalType": "bool",
              "name": "active",
              "type": "bool"
            }
          ],
          "internalType": "struct QuantumSafeWallet.Session",
          "name": "",
          "type": "tuple"
        }
      ],
      "stateMutability": "view",
      "type": "function"
    },
    {
      "inputs": [
        {
          "internalType": "address",
          "name": "",
          "type": "address"
        }
      ],
      "name": "sessions",
      "outputs": [
        {
          "internalType": "bytes32",
          "name": "proofJournal",
          "type": "bytes32"
        },
        {
          "internalType": "bytes32",
          "name": "proofSeal",
          "type": "bytes32"
        },
        {
          "internalType": "uint256",
          "name": "expiry",
          "type": "uint256"
        },
        {
          "internalType": "bool",
          "name": "active",
          "type": "bool"
        }
      ],
      "stateMutability": "view",
      "type": "function"
    },
    {
      "inputs": [
        {
          "internalType": "address",
          "name": "to",
          "type": "address"
        },
        {
          "internalType": "uint256",
          "name": "amount",
          "type": "uint256"
        },
        {
          "internalType": "bytes32",
          "name": "txHash",
          "type": "bytes32"
        }
      ],
      "name": "validateTransaction",
      "outputs": [
        {
          "internalType": "bool",
          "name": "",
          "type": "bool"
        }
      ],
      "stateMutability": "view",
      "type": "function"
    },
    {
      "inputs": [],
      "name": "verifier",
      "outputs": [
        {
          "internalType": "contract IRiscZeroVerifier",
          "name": "",
          "type": "address"
        }
      ],
      "stateMutability": "view",
      "type": "function"
    }
  ],
  "bytecode": "0x60c06040523480156200001157600080fd5b506040516200126038038062001260833981810160405281019062000037919062000120565b8173ffffffffffffffffffffffffffffffffffffffff1660808173ffffffffffffffffffffffffffffffffffffffff16815250508060a08181525050505062000167565b600080fd5b600073ffffffffffffffffffffffffffffffffffffffff82169050919050565b6000620000ad8262000080565b9050919050565b620000bf81620000a0565b8114620000cb57600080fd5b50565b600081519050620000df81620000b4565b92915050565b6000819050919050565b620000fa81620000e5565b81146200010657600080fd5b50565b6000815190506200011a81620000ef565b92915050565b600080604083850312156200013a57620001396200007b565b5b60006200014a85828601620000ce565b92505060206200015d8582860162000109565b9150509250929050565b60805160a0516110c56200019b600039600081816101f2015261063a0152600081816101b601526103da01526110c56000f3fe608060405234801561001057600080fd5b506004361061007d5760003560e01c8063431a1b971161005b578063431a1b97146100d85780638c8e13b91461010b578063efecc5e81461013b578063fa6dec9a146101595761007d565b8063175bc0b8146100825780632b7ac3f31461009e5780632bedae8d146100bc575b600080fd5b61009c600480360381019061009791906108b6565b610189565b005b6100a66103d8565b6040516100b391906109a9565b60405180910390f35b6100d660048036038101906100d19190610a02565b6103fc565b005b6100f260048036038101906100ed9190610a93565b61056a565b6040516101029493929190610af9565b60405180910390f35b61012560048036038101906101209190610a93565b6105a7565b6040516101329190610bc0565b60405180910390f35b610143610638565b6040516101509190610bdb565b60405180910390f35b610173600480360381019061016e9190610bf6565b61065c565b6040516101809190610c49565b60405180910390f35b60008460405160200161019c9190610bdb565b6040516020818303038152906040528051906020012090507f000000000000000000000000000000000000000000000000000000000000000073ffffffffffffffffffffffffffffffffffffffff1663de12c6407f00000000000000000000000000000000000000000000000000000000000000008387876040518563ffffffff1660e01b81526004016102339493929190610cc2565b602060405180830381865afa158015610250573d6000803e3d6000fd5b505050506040513d601f19601f820116820180604052508101906102749190610d2e565b6102b3576040517f08c379a00000000000000000000000000000000000000000000000000000000081526004016102aa90610db8565b60405180910390fd5b604051806080016040528086815260200185856040516102d4929190610e08565b6040518091039020815260200183426102ed9190610e50565b8152602001600115158152506000803373ffffffffffffffffffffffffffffffffffffffff1673ffffffffffffffffffffffffffffffffffffffff16815260200190815260200160002060008201518160000155602082015181600101556040820151816002015560608201518160030160006101000a81548160ff0219169083151502179055509050503373ffffffffffffffffffffffffffffffffffffffff167fbb0fc5e96176e5f20f7e8333844ede297a6b31fd8e5d7cb8e63ae181b6d6a80483426103bc9190610e50565b6040516103c99190610e84565b60405180910390a25050505050565b7f000000000000000000000000000000000000000000000000000000000000000081565b3073ffffffffffffffffffffffffffffffffffffffff1663fa6dec9a8484846040518463ffffffff1660e01b815260040161043993929190610ec0565b602060405180830381865afa158015610456573d6000803e3d6000fd5b505050506040513d601f19601f8201168201806040525081019061047a9190610d2e565b6104b9576040517f08c379a00000000000000000000000000000000000000000000000000000000081526004016104b090610f43565b60405180910390fd5b8273ffffffffffffffffffffffffffffffffffffffff166108fc839081150290604051600060405180830381858888f193505050501580156104ff573d6000803e3d6000fd5b508273ffffffffffffffffffffffffffffffffffffffff163373ffffffffffffffffffffffffffffffffffffffff167f94ae053aef9109642f72a1d07e7a1f9d4473ad1260f3af0dff35b43dc14071658460405161055d9190610e84565b60405180910390a3505050565b60006020528060005260406000206000915090508060000154908060010154908060020154908060030160009054906101000a900460ff16905084565b6105af6107ab565b6000808373ffffffffffffffffffffffffffffffffffffffff1673ffffffffffffffffffffffffffffffffffffffff1681526020019081526020016000206040518060800160405290816000820154815260200160018201548152602001600282015481526020016003820160009054906101000a900460ff1615151515815250509050919050565b7f000000000000000000000000000000000000000000000000000000000000000081565b6000806000803373ffffffffffffffffffffffffffffffffffffffff1673ffffffffffffffffffffffffffffffffffffffff1681526020019081526020016000206040518060800160405290816000820154815260200160018201548152602001600282015481526020016003820160009054906101000a900460ff16151515158152505090508060600151610727576040517f08c379a000000000000000000000000000000000000000000000000000000000815260040161071e90610faf565b60405180910390fd5b8060400151421061076d576040517f08c379a00000000000000000000000000000000000000000000000000000000081526004016107649061101b565b60405180910390fd5b600033868686604051602001610786949392919061104a565b6040516020818303038152906040528051906020012090506001925050509392505050565b60405180608001604052806000801916815260200160008019168152602001600081526020016000151581525090565b600080fd5b600080fd5b6000819050919050565b6107f8816107e5565b811461080357600080fd5b50565b600081359050610815816107ef565b92915050565b600080fd5b600080fd5b600080fd5b60008083601f8401126108405761083f61081b565b5b8235905067ffffffffffffffff81111561085d5761085c610820565b5b60208301915083600182028301111561087957610878610825565b5b9250929050565b6000819050919050565b61089381610880565b811461089e57600080fd5b50565b6000813590506108b08161088a565b92915050565b600080600080606085870312156108d0576108cf6107db565b5b60006108de87828801610806565b945050602085013567ffffffffffffffff8111156108ff576108fe6107e0565b5b61090b8782880161082a565b9350935050604061091e878288016108a1565b91505092959194509250565b600073ffffffffffffffffffffffffffffffffffffffff82169050919050565b6000819050919050565b600061096f61096a6109658461092a565b61094a565b61092a565b9050919050565b600061098182610954565b9050919050565b600061099382610976565b9050919050565b6109a381610988565b82525050565b60006020820190506109be600083018461099a565b92915050565b60006109cf8261092a565b9050919050565b6109df816109c4565b81146109ea57600080fd5b50565b6000813590506109fc816109d6565b92915050565b600080600060608486031215610a1b57610a1a6107db565b5b6000610a29868287016109ed565b9350506020610a3a868287016108a1565b9250506040610a4b86828701610806565b9150509250925092565b6000610a608261092a565b9050919050565b610a7081610a55565b8114610a7b57600080fd5b50565b600081359050610a8d81610a67565b92915050565b600060208284031215610aa957610aa86107db565b5b6000610ab784828501610a7e565b91505092915050565b610ac9816107e5565b82525050565b610ad881610880565b82525050565b60008115159050919050565b610af381610ade565b82525050565b6000608082019050610b0e6000830187610ac0565b610b1b6020830186610ac0565b610b286040830185610acf565b610b356060830184610aea565b95945050505050565b610b47816107e5565b82525050565b610b5681610880565b82525050565b610b6581610ade565b82525050565b608082016000820151610b816000850182610b3e565b506020820151610b946020850182610b3e565b506040820151610ba76040850182610b4d565b506060820151610bba6060850182610b5c565b50505050565b6000608082019050610bd56000830184610b6b565b92915050565b6000602082019050610bf06000830184610ac0565b92915050565b600080600060608486031215610c0f57610c0e6107db565b5b6000610c1d86828701610a7e565b9350506020610c2e868287016108a1565b9250506040610c3f86828701610806565b9150509250925092565b6000602082019050610c5e6000830184610aea565b92915050565b600082825260208201905092915050565b82818337600083830152505050565b6000601f19601f8301169050919050565b6000610ca18385610c64565b9350610cae838584610c75565b610cb783610c84565b840190509392505050565b6000606082019050610cd76000830187610ac0565b610ce46020830186610ac0565b8181036040830152610cf7818486610c95565b905095945050505050565b610d0b81610ade565b8114610d1657600080fd5b50565b600081519050610d2881610d02565b92915050565b600060208284031215610d4457610d436107db565b5b6000610d5284828501610d19565b91505092915050565b600082825260208201905092915050565b7f496e76616c6964207a6b564d2070726f6f660000000000000000000000000000600082015250565b6000610da2601283610d5b565b9150610dad82610d6c565b602082019050919050565b60006020820190508181036000830152610dd181610d95565b9050919050565b600081905092915050565b6000610def8385610dd8565b9350610dfc838584610c75565b82840190509392505050565b6000610e15828486610de3565b91508190509392505050565b7f4e487b7100000000000000000000000000000000000000000000000000000000600052601160045260246000fd5b6000610e5b82610880565b9150610e6683610880565b9250828201905080821115610e7e57610e7d610e21565b5b92915050565b6000602082019050610e996000830184610acf565b92915050565b6000610eaa82610976565b9050919050565b610eba81610e9f565b82525050565b6000606082019050610ed56000830186610eb1565b610ee26020830185610acf565b610eef6040830184610ac0565b949350505050565b7f5472616e73616374696f6e206e6f7420617574686f72697a6564000000000000600082015250565b6000610f2d601a83610d5b565b9150610f3882610ef7565b602082019050919050565b60006020820190508181036000830152610f5c81610f20565b9050919050565b7f4e6f206163746976652073657373696f6e000000000000000000000000000000600082015250565b6000610f99601183610d5b565b9150610fa482610f63565b602082019050919050565b60006020820190508181036000830152610fc881610f8c565b9050919050565b7f53657373696f6e20657870697265640000000000000000000000000000000000600082015250565b6000611005600f83610d5b565b915061101082610fcf565b602082019050919050565b6000602082019050818103600083015261103481610ff8565b9050919050565b61104481610a55565b82525050565b600060808201905061105f600083018761103b565b61106c602083018661103b565b6110796040830185610acf565b6110866060830184610ac0565b9594505050505056fea2646970667358221220a2c93940f8bb2b2e087e5a601c3cbababac530e20b2628bdfe8f102c709fc2bd64736f6c63430008130033",
  "linkReferences": {},
  "deployedLinkReferences": {}
}