{
  "_format": "hh-sol-artifact-1",
  "contractName": "HybridWalletFactory",
  "sourceName": "contracts/HybridWalletFactory.sol",
  "abi": [
    {
      "inputs": [
        {
          "internalType": "address",
          "name": "_sessionRegistry",
          "type": "address"
        }
      ],
      "stateMutability": "nonpayable",
      "type": "constructor"
    },
    {
      "anonymous": false,
      "inputs": [
        {
          "indexed": true,
          "internalType": "address",
          "name": "owner",
          "type": "address"
        },
        {
          "indexed": false,
          "internalType": "address",
          "name": "wallet",
          "type": "address"
        }
      ],
      "name": "WalletCreated",
      "type": "event"
    },
    {
      "inputs": [],
      "name": "createWallet",
      "outputs": [
        {
          "internalType": "address",
          "name": "wallet",
          "type": "address"
        }
      ],
      "stateMutability": "nonpayable",
      "type": "function"
    },
    {
      "inputs": [],
      "name": "sessionRegistry",
      "outputs": [
        {
          "internalType": "address",
          "name": "",
          "type": "address"
        }
      ],
      "stateMutability": "view",
      "type": "function"
    },
    {
      "inputs": [
        {
          "internalType": "address",
          "name": "",
          "type": "address"
        }
      ],
      "name": "walletOf",
      "outputs": [
        {
          "internalType": "address",
          "name": "",
          "type": "address"
        }
      ],
      "stateMutability": "view",
      "type": "function"
    }
  ],
  "bytecode": "0x60a060405234801561001057600080fd5b50604051611520380380611520833981810160405281019061003291906100cf565b8073ffffffffffffffffffffffffffffffffffffffff1660808173ffffffffffffffffffffffffffffffffffffffff1681525050506100fc565b600080fd5b600073ffffffffffffffffffffffffffffffffffffffff82169050919050565b600061009c82610071565b9050919050565b6100ac81610091565b81146100b757600080fd5b50565b6000815190506100c9816100a3565b92915050565b6000602082840312156100e5576100e461006c565b5b60006100f3848285016100ba565b91505092915050565b60805161140261011e6000396000818161018301526102db01526114026000f3fe608060405234801561001057600080fd5b50600436106100415760003560e01c806311ebbf24146100465780631982640c14610064578063a9a0d82b14610094575b600080fd5b61004e6100b2565b60405161005b919061034b565b60405180910390f35b61007e60048036038101906100799190610397565b6102a6565b60405161008b919061034b565b60405180910390f35b61009c6102d9565b6040516100a9919061034b565b60405180910390f35b60008073ffffffffffffffffffffffffffffffffffffffff166000803373ffffffffffffffffffffffffffffffffffffffff1673ffffffffffffffffffffffffffffffffffffffff16815260200190815260200160002060009054906101000a900473ffffffffffffffffffffffffffffffffffffffff1673ffffffffffffffffffffffffffffffffffffffff1614610180576040517f08c379a000000000000000000000000000000000000000000000000000000000815260040161017790610421565b60405180910390fd5b337f00000000000000000000000000000000000000000000000000000000000000006040516101ae906102fd565b6101b9929190610441565b604051809103906000f0801580156101d5573d6000803e3d6000fd5b509050806000803373ffffffffffffffffffffffffffffffffffffffff1673ffffffffffffffffffffffffffffffffffffffff16815260200190815260200160002060006101000a81548173ffffffffffffffffffffffffffffffffffffffff021916908373ffffffffffffffffffffffffffffffffffffffff1602179055503373ffffffffffffffffffffffffffffffffffffffff167f5b03bfed1c14a02bdeceb5fa582eb1a5765fc0bc64ca0e6af4c20afc9487f0818260405161029b919061034b565b60405180910390a290565b60006020528060005260406000206000915054906101000a900473ffffffffffffffffffffffffffffffffffffffff1681565b7f000000000000000000000000000000000000000000000000000000000000000081565b610f628061046b83390190565b600073ffffffffffffffffffffffffffffffffffffffff82169050919050565b60006103358261030a565b9050919050565b6103458161032a565b82525050565b6000602082019050610360600083018461033c565b92915050565b600080fd5b6103748161032a565b811461037f57600080fd5b50565b6000813590506103918161036b565b92915050565b6000602082840312156103ad576103ac610366565b5b60006103bb84828501610382565b91505092915050565b600082825260208201905092915050565b7f616c7265616479206861732077616c6c65740000000000000000000000000000600082015250565b600061040b6012836103c4565b9150610416826103d5565b602082019050919050565b6000602082019050818103600083015261043a816103fe565b9050919050565b6000604082019050610456600083018561033c565b610463602083018461033c565b939250505056fe60a06040523480156200001157600080fd5b5060405162000f6238038062000f6283398181016040528101906200003791906200011d565b816000806101000a81548173ffffffffffffffffffffffffffffffffffffffff021916908373ffffffffffffffffffffffffffffffffffffffff1602179055508073ffffffffffffffffffffffffffffffffffffffff1660808173ffffffffffffffffffffffffffffffffffffffff1681525050505062000164565b600080fd5b600073ffffffffffffffffffffffffffffffffffffffff82169050919050565b6000620000e582620000b8565b9050919050565b620000f781620000d8565b81146200010357600080fd5b50565b6000815190506200011781620000ec565b92915050565b60008060408385031215620001375762000136620000b3565b5b6000620001478582860162000106565b92505060206200015a8582860162000106565b9150509250929050565b608051610dd46200018e6000396000818161021f0152818161048201526106750152610dd46000f3fe6080604052600436106100595760003560e01c80630809941c1461006557806346b05c88146100a25780637b5a5df9146100d25780638da5cb5b14610102578063a9a0d82b1461012d578063f2fde38b1461015857610060565b3661006057005b600080fd5b34801561007157600080fd5b5061008c600480360381019061008791906107d0565b610181565b6040516100999190610816565b60405180910390f35b6100bc60048036038101906100b79190610896565b61018d565b6040516100c991906109ef565b60405180910390f35b6100ec60048036038101906100e79190610a11565b6103f0565b6040516100f991906109ef565b60405180910390f35b34801561010e57600080fd5b5061011761064f565b6040516101249190610a80565b60405180910390f35b34801561013957600080fd5b50610142610673565b60405161014f9190610afa565b60405180910390f35b34801561016457600080fd5b5061017f600480360381019061017a91906107d0565b610697565b005b60006001549050919050565b606060008054906101000a900473ffffffffffffffffffffffffffffffffffffffff1673ffffffffffffffffffffffffffffffffffffffff163373ffffffffffffffffffffffffffffffffffffffff161461021d576040517f08c379a000000000000000000000000000000000000000000000000000000000815260040161021490610b72565b60405180910390fd5b7f000000000000000000000000000000000000000000000000000000000000000073ffffffffffffffffffffffffffffffffffffffff16636425680260008054906101000a900473ffffffffffffffffffffffffffffffffffffffff166040518263ffffffff1660e01b81526004016102969190610a80565b602060405180830381865afa1580156102b3573d6000803e3d6000fd5b505050506040513d601f19601f820116820180604052508101906102d79190610bca565b610316576040517f08c379a000000000000000000000000000000000000000000000000000000000815260040161030d90610c43565b60405180910390fd5b6001600081548092919061032990610c92565b91905055506000808973ffffffffffffffffffffffffffffffffffffffff16348a8a604051610359929190610d19565b60006040518083038185875af1925050503d8060008114610396576040519150601f19603f3d011682016040523d82523d6000602084013e61039b565b606091505b5091509150816103e0576040517f08c379a00000000000000000000000000000000000000000000000000000000081526004016103d790610d7e565b60405180910390fd5b8092505050979650505050505050565b606060008054906101000a900473ffffffffffffffffffffffffffffffffffffffff1673ffffffffffffffffffffffffffffffffffffffff163373ffffffffffffffffffffffffffffffffffffffff1614610480576040517f08c379a000000000000000000000000000000000000000000000000000000000815260040161047790610b72565b60405180910390fd5b7f000000000000000000000000000000000000000000000000000000000000000073ffffffffffffffffffffffffffffffffffffffff16636425680260008054906101000a900473ffffffffffffffffffffffffffffffffffffffff166040518263ffffffff1660e01b81526004016104f99190610a80565b602060405180830381865afa158015610516573d6000803e3d6000fd5b505050506040513d601f19601f8201168201806040525081019061053a9190610bca565b610579576040517f08c379a000000000000000000000000000000000000000000000000000000000815260040161057090610c43565b60405180910390fd5b6001600081548092919061058c90610c92565b91905055506000808573ffffffffffffffffffffffffffffffffffffffff163486866040516105bc929190610d19565b60006040518083038185875af1925050503d80600081146105f9576040519150601f19603f3d011682016040523d82523d6000602084013e6105fe565b606091505b509150915081610643576040517f08c379a000000000000000000000000000000000000000000000000000000000815260040161063a90610d7e565b60405180910390fd5b80925050509392505050565b60008054906101000a900473ffffffffffffffffffffffffffffffffffffffff1681565b7f000000000000000000000000000000000000000000000000000000000000000081565b60008054906101000a900473ffffffffffffffffffffffffffffffffffffffff1673ffffffffffffffffffffffffffffffffffffffff163373ffffffffffffffffffffffffffffffffffffffff1614610725576040517f08c379a000000000000000000000000000000000000000000000000000000000815260040161071c90610b72565b60405180910390fd5b806000806101000a81548173ffffffffffffffffffffffffffffffffffffffff021916908373ffffffffffffffffffffffffffffffffffffffff16021790555050565b600080fd5b600080fd5b600073ffffffffffffffffffffffffffffffffffffffff82169050919050565b600061079d82610772565b9050919050565b6107ad81610792565b81146107b857600080fd5b50565b6000813590506107ca816107a4565b92915050565b6000602082840312156107e6576107e5610768565b5b60006107f4848285016107bb565b91505092915050565b6000819050919050565b610810816107fd565b82525050565b600060208201905061082b6000830184610807565b92915050565b600080fd5b600080fd5b600080fd5b60008083601f84011261085657610855610831565b5b8235905067ffffffffffffffff81111561087357610872610836565b5b60208301915083600182028301111561088f5761088e61083b565b5b9250929050565b60008060008060008060006080888a0312156108b5576108b4610768565b5b60006108c38a828b016107bb565b975050602088013567ffffffffffffffff8111156108e4576108e361076d565b5b6108f08a828b01610840565b9650965050604088013567ffffffffffffffff8111156109135761091261076d565b5b61091f8a828b01610840565b9450945050606088013567ffffffffffffffff8111156109425761094161076d565b5b61094e8a828b01610840565b925092505092959891949750929550565b600081519050919050565b600082825260208201905092915050565b60005b8381101561099957808201518184015260208101905061097e565b60008484015250505050565b6000601f19601f8301169050919050565b60006109c18261095f565b6109cb818561096a565b93506109db81856020860161097b565b6109e4816109a5565b840191505092915050565b60006020820190508181036000830152610a0981846109b6565b905092915050565b600080600060408486031215610a2a57610a29610768565b5b6000610a38868287016107bb565b935050602084013567ffffffffffffffff811115610a5957610a5861076d565b5b610a6586828701610840565b92509250509250925092565b610a7a81610792565b82525050565b6000602082019050610a956000830184610a71565b92915050565b6000819050919050565b6000610ac0610abb610ab684610772565b610a9b565b610772565b9050919050565b6000610ad282610aa5565b9050919050565b6000610ae482610ac7565b9050919050565b610af481610ad9565b82525050565b6000602082019050610b0f6000830184610aeb565b92915050565b600082825260208201905092915050565b7f6f6e6c79206f776e657200000000000000000000000000000000000000000000600082015250565b6000610b5c600a83610b15565b9150610b6782610b26565b602082019050919050565b60006020820190508181036000830152610b8b81610b4f565b9050919050565b60008115159050919050565b610ba781610b92565b8114610bb257600080fd5b50565b600081519050610bc481610b9e565b92915050565b600060208284031215610be057610bdf610768565b5b6000610bee84828501610bb5565b91505092915050565b7f4e6f2076616c69642073657373696f6e00000000000000000000000000000000600082015250565b6000610c2d601083610b15565b9150610c3882610bf7565b602082019050919050565b60006020820190508181036000830152610c5c81610c20565b9050919050565b7f4e487b7100000000000000000000000000000000000000000000000000000000600052601160045260246000fd5b6000610c9d826107fd565b91507fffffffffffffffffffffffffffffffffffffffffffffffffffffffffffffffff8203610ccf57610cce610c63565b5b600182019050919050565b600081905092915050565b82818337600083830152505050565b6000610d008385610cda565b9350610d0d838584610ce5565b82840190509392505050565b6000610d26828486610cf4565b91508190509392505050565b7f5472616e73616374696f6e206661696c65640000000000000000000000000000600082015250565b6000610d68601283610b15565b9150610d7382610d32565b602082019050919050565b60006020820190508181036000830152610d9781610d5b565b905091905056fea26469706673582212203292f3b405d9fe1ee697a209ffd03319af37e00422665da1f1120ddc3e2ae95564736f6c63430008130033a26469706673582212206998d5d07d7654d1d1316b56d3e3e1a0ac86de52554bcd39912c79bd986660d764736f6c63430008130033",
  "linkReferences": {},
  "deployedLinkReferences": {}
}