{
  "_format": "hh-sol-artifact-1",
  "contractName": "SessionRootRegistry",
  "sourceName": "contracts/SessionRootRegistry.sol",
  "abi": [
    {
      "anonymous": false,
      "inputs": [
        {
          "indexed": true,
          "internalType": "bytes32",
          "name": "rootHash",
          "type": "bytes32"
        },
        {
          "indexed": false,
          "internalType": "string",
          "name": "status",
          "type": "string"
        },
        {
          "indexed": false,
          "internalType": "bytes32",
          "name": "receiptHash",
          "type": "bytes32"
        }
      ],
      "name": "SessionAudited",
      "type": "event"
    },
    {
      "anonymous": false,
      "inputs": [
        {
          "indexed": true,
          "internalType": "bytes32",
          "name": "rootHash",
          "type": "bytes32"
        },
        {
          "indexed": true,
          "internalType": "address",
          "name": "creator",
          "type": "address"
        },
        {
          "indexed": false,
          "internalType": "uint256",
          "name": "expiry",
          "type": "uint256"
        }
      ],
      "name": "SessionRootSet",
      "type": "event"
    },
    {
      "inputs": [
        {
          "internalType": "bytes32",
          "name": "rootHash",
          "type": "bytes32"
        }
      ],
      "name": "getSessionRoot",
      "outputs": [
        {
          "components": [
            {
              "internalType": "bytes32",
              "name": "merkleRoot",
              "type": "bytes32"
            },
            {
              "internalType": "uint256",
              "name": "expiry",
              "type": "uint256"
            },
            {
              "internalType": "uint256",
              "name": "timestamp",
              "type": "uint256"
            },
            {
              "internalType": "address",
              "name": "creator",
              "type": "address"
            },
            {
              "internalType": "bool",
              "name": "active",
              "type": "bool"
            },
            {
              "internalType": "string",
              "name": "auditStatus",
              "type": "string"
            }
          ],
          "internalType": "struct SessionRootRegistry.SessionRoot",
          "name": "",
          "type": "tuple"
        }
      ],
      "stateMutability": "view",
      "type": "function"
    },
    {
      "inputs": [
        {
          "internalType": "bytes32",
          "name": "",
          "type": "bytes32"
        }
      ],
      "name": "sessionRoots",
      "outputs": [
        {
          "internalType": "bytes32",
          "name": "merkleRoot",
          "type": "bytes32"
        },
        {
          "internalType": "uint256",
          "name": "expiry",
          "type": "uint256"
        },
        {
          "internalType": "uint256",
          "name": "timestamp",
          "type": "uint256"
        },
        {
          "internalType": "address",
          "name": "creator",
          "type": "address"
        },
        {
          "internalType": "bool",
          "name": "active",
          "type": "bool"
        },
        {
          "internalType": "string",
          "name": "auditStatus",
          "type": "string"
        }
      ],
      "stateMutability": "view",
      "type": "function"
    },
    {
      "inputs": [
        {
          "internalType": "bytes32",
          "name": "merkleRoot",
          "type": "bytes32"
        },
        {
          "internalType": "uint256",
          "name": "duration",
          "type": "uint256"
        }
      ],
      "name": "setSessionRoot",
      "outputs": [],
      "stateMutability": "nonpayable",
      "type": "function"
    },
    {
      "inputs": [
        {
          "internalType": "bytes32",
          "name": "rootHash",
          "type": "bytes32"
        },
        {
          "internalType": "string",
          "name": "status",
          "type": "string"
        },
        {
          "internalType": "bytes32",
          "name": "receiptHash",
          "type": "bytes32"
        }
      ],
      "name": "updateAuditStatus",
      "outputs": [],
      "stateMutability": "nonpayable",
      "type": "function"
    },
    {
      "inputs": [
        {
          "internalType": "address",
          "name": "",
          "type": "address"
        },
        {
          "internalType": "uint256",
          "name": "",
          "type": "uint256"
        }
      ],
      "name": "userSessions",
      "outputs": [
        {
          "internalType": "bytes32",
          "name": "",
          "type": "bytes32"
        }
      ],
      "stateMutability": "view",
      "type": "function"
    },
    {
      "inputs": [
        {
          "internalType": "bytes32",
          "name": "rootHash",
          "type": "bytes32"
        },
        {
          "internalType": "bytes32",
          "name": "leaf",
          "type": "bytes32"
        },
        {
          "internalType": "bytes32[]",
          "name": "merkleProof",
          "type": "bytes32[]"
        }
      ],
      "name": "validateInclusion",
      "outputs": [
        {
          "internalType": "bool",
          "name": "",
          "type": "bool"
        }
      ],
      "stateMutability": "view",
      "type": "function"
    }
  ],
  "bytecode": "0x608060405234801561001057600080fd5b506116f5806100206000396000f3fe608060405234801561001057600080fd5b50600436106100625760003560e01c806312adfb86146100675780636d597d13146100975780637a98134a146100c757806393cfd0e5146100f7578063d08693411461012c578063e7ac7e8114610148575b600080fd5b610081600480360381019061007c9190610a86565b610164565b60405161008e9190610b15565b60405180910390f35b6100b160048036038101906100ac9190610bc4565b6103ed565b6040516100be9190610c13565b60405180910390f35b6100e160048036038101906100dc9190610c2e565b61041e565b6040516100ee9190610db0565b60405180910390f35b610111600480360381019061010c9190610c2e565b61056b565b60405161012396959493929190610e3a565b60405180910390f35b61014660048036038101906101419190610ef8565b61065c565b005b610162600480360381019061015d9190610f6c565b610766565b005b6000806000808781526020019081526020016000206040518060c00160405290816000820154815260200160018201548152602001600282015481526020016003820160009054906101000a900473ffffffffffffffffffffffffffffffffffffffff1673ffffffffffffffffffffffffffffffffffffffff1673ffffffffffffffffffffffffffffffffffffffff1681526020016003820160149054906101000a900460ff1615151515815260200160048201805461022390610fdb565b80601f016020809104026020016040519081016040528092919081815260200182805461024f90610fdb565b801561029c5780601f106102715761010080835404028352916020019161029c565b820191906000526020600020905b81548152906001019060200180831161027f57829003601f168201915b505050505081525050905080608001516102eb576040517f08c379a00000000000000000000000000000000000000000000000000000000081526004016102e290611058565b60405180910390fd5b80602001514210610331576040517f08c379a0000000000000000000000000000000000000000000000000000000008152600401610328906110c4565b60405180910390fd5b600085905060005b858590508110156103d9576000868683818110610359576103586110e4565b5b90506020020135905080831161039957828160405160200161037c929190611134565b6040516020818303038152906040528051906020012092506103c5565b80836040516020016103ac929190611134565b6040516020818303038152906040528051906020012092505b5080806103d19061118f565b915050610339565b508160000151811492505050949350505050565b6001602052816000526040600020818154811061040957600080fd5b90600052602060002001600091509150505481565b610426610990565b6000808381526020019081526020016000206040518060c00160405290816000820154815260200160018201548152602001600282015481526020016003820160009054906101000a900473ffffffffffffffffffffffffffffffffffffffff1673ffffffffffffffffffffffffffffffffffffffff1673ffffffffffffffffffffffffffffffffffffffff1681526020016003820160149054906101000a900460ff161515151581526020016004820180546104e290610fdb565b80601f016020809104026020016040519081016040528092919081815260200182805461050e90610fdb565b801561055b5780601f106105305761010080835404028352916020019161055b565b820191906000526020600020905b81548152906001019060200180831161053e57829003601f168201915b5050505050815250509050919050565b60006020528060005260406000206000915090508060000154908060010154908060020154908060030160009054906101000a900473ffffffffffffffffffffffffffffffffffffffff16908060030160149054906101000a900460ff16908060040180546105d990610fdb565b80601f016020809104026020016040519081016040528092919081815260200182805461060590610fdb565b80156106525780601f1061062757610100808354040283529160200191610652565b820191906000526020600020905b81548152906001019060200180831161063557829003601f168201915b5050505050905086565b3373ffffffffffffffffffffffffffffffffffffffff1660008086815260200190815260200160002060030160009054906101000a900473ffffffffffffffffffffffffffffffffffffffff1673ffffffffffffffffffffffffffffffffffffffff16146106ff576040517f08c379a00000000000000000000000000000000000000000000000000000000081526004016106f690611223565b60405180910390fd5b82826000808781526020019081526020016000206004019182610723929190611429565b50837f9f44dae2188048a7f386c3a89b06ec8c61c6fc3d8c7b9eefcc20c75d5cb6756084848460405161075893929190611535565b60405180910390a250505050565b600082334260405160200161077d93929190611567565b6040516020818303038152906040528051906020012090506040518060c0016040528084815260200183426107b2919061159e565b81526020014281526020013373ffffffffffffffffffffffffffffffffffffffff1681526020016001151581526020016040518060400160405280600781526020017f70656e64696e670000000000000000000000000000000000000000000000000081525081525060008083815260200190815260200160002060008201518160000155602082015181600101556040820151816002015560608201518160030160006101000a81548173ffffffffffffffffffffffffffffffffffffffff021916908373ffffffffffffffffffffffffffffffffffffffff16021790555060808201518160030160146101000a81548160ff02191690831515021790555060a08201518160040190816108c791906115d2565b50905050600160003373ffffffffffffffffffffffffffffffffffffffff1673ffffffffffffffffffffffffffffffffffffffff1681526020019081526020016000208190806001815401808255809150506001900390600052602060002001600090919091909150553373ffffffffffffffffffffffffffffffffffffffff16817f30673d35c2111e21e53af67c772058b97b8d61b75a52072a9014f0edab8bb84b8442610976919061159e565b60405161098391906116a4565b60405180910390a3505050565b6040518060c00160405280600080191681526020016000815260200160008152602001600073ffffffffffffffffffffffffffffffffffffffff168152602001600015158152602001606081525090565b600080fd5b600080fd5b6000819050919050565b6109fe816109eb565b8114610a0957600080fd5b50565b600081359050610a1b816109f5565b92915050565b600080fd5b600080fd5b600080fd5b60008083601f840112610a4657610a45610a21565b5b8235905067ffffffffffffffff811115610a6357610a62610a26565b5b602083019150836020820283011115610a7f57610a7e610a2b565b5b9250929050565b60008060008060608587031215610aa057610a9f6109e1565b5b6000610aae87828801610a0c565b9450506020610abf87828801610a0c565b935050604085013567ffffffffffffffff811115610ae057610adf6109e6565b5b610aec87828801610a30565b925092505092959194509250565b60008115159050919050565b610b0f81610afa565b82525050565b6000602082019050610b2a6000830184610b06565b92915050565b600073ffffffffffffffffffffffffffffffffffffffff82169050919050565b6000610b5b82610b30565b9050919050565b610b6b81610b50565b8114610b7657600080fd5b50565b600081359050610b8881610b62565b92915050565b6000819050919050565b610ba181610b8e565b8114610bac57600080fd5b50565b600081359050610bbe81610b98565b92915050565b60008060408385031215610bdb57610bda6109e1565b5b6000610be985828601610b79565b9250506020610bfa85828601610baf565b9150509250929050565b610c0d816109eb565b82525050565b6000602082019050610c286000830184610c04565b92915050565b600060208284031215610c4457610c436109e1565b5b6000610c5284828501610a0c565b91505092915050565b610c64816109eb565b82525050565b610c7381610b8e565b82525050565b610c8281610b50565b82525050565b610c9181610afa565b82525050565b600081519050919050565b600082825260208201905092915050565b60005b83811015610cd1578082015181840152602081019050610cb6565b60008484015250505050565b6000601f19601f8301169050919050565b6000610cf982610c97565b610d038185610ca2565b9350610d13818560208601610cb3565b610d1c81610cdd565b840191505092915050565b600060c083016000830151610d3f6000860182610c5b565b506020830151610d526020860182610c6a565b506040830151610d656040860182610c6a565b506060830151610d786060860182610c79565b506080830151610d8b6080860182610c88565b5060a083015184820360a0860152610da38282610cee565b9150508091505092915050565b60006020820190508181036000830152610dca8184610d27565b905092915050565b610ddb81610b8e565b82525050565b610dea81610b50565b82525050565b600082825260208201905092915050565b6000610e0c82610c97565b610e168185610df0565b9350610e26818560208601610cb3565b610e2f81610cdd565b840191505092915050565b600060c082019050610e4f6000830189610c04565b610e5c6020830188610dd2565b610e696040830187610dd2565b610e766060830186610de1565b610e836080830185610b06565b81810360a0830152610e958184610e01565b9050979650505050505050565b60008083601f840112610eb857610eb7610a21565b5b8235905067ffffffffffffffff811115610ed557610ed4610a26565b5b602083019150836001820283011115610ef157610ef0610a2b565b5b9250929050565b60008060008060608587031215610f1257610f116109e1565b5b6000610f2087828801610a0c565b945050602085013567ffffffffffffffff811115610f4157610f406109e6565b5b610f4d87828801610ea2565b93509350506040610f6087828801610a0c565b91505092959194509250565b60008060408385031215610f8357610f826109e1565b5b6000610f9185828601610a0c565b9250506020610fa285828601610baf565b9150509250929050565b7f4e487b7100000000000000000000000000000000000000000000000000000000600052602260045260246000fd5b60006002820490506001821680610ff357607f821691505b60208210810361100657611005610fac565b5b50919050565b7f53657373696f6e206e6f74206163746976650000000000000000000000000000600082015250565b6000611042601283610df0565b915061104d8261100c565b602082019050919050565b6000602082019050818103600083015261107181611035565b9050919050565b7f53657373696f6e20657870697265640000000000000000000000000000000000600082015250565b60006110ae600f83610df0565b91506110b982611078565b602082019050919050565b600060208201905081810360008301526110dd816110a1565b9050919050565b7f4e487b7100000000000000000000000000000000000000000000000000000000600052603260045260246000fd5b6000819050919050565b61112e611129826109eb565b611113565b82525050565b6000611140828561111d565b602082019150611150828461111d565b6020820191508190509392505050565b7f4e487b7100000000000000000000000000000000000000000000000000000000600052601160045260246000fd5b600061119a82610b8e565b91507fffffffffffffffffffffffffffffffffffffffffffffffffffffffffffffffff82036111cc576111cb611160565b5b600182019050919050565b7f4e6f742073657373696f6e2063726561746f7200000000000000000000000000600082015250565b600061120d601383610df0565b9150611218826111d7565b602082019050919050565b6000602082019050818103600083015261123c81611200565b9050919050565b600082905092915050565b7f4e487b7100000000000000000000000000000000000000000000000000000000600052604160045260246000fd5b60008190508160005260206000209050919050565b60006020601f8301049050919050565b600082821b905092915050565b6000600883026112df7fffffffffffffffffffffffffffffffffffffffffffffffffffffffffffffffff826112a2565b6112e986836112a2565b95508019841693508086168417925050509392505050565b6000819050919050565b600061132661132161131c84610b8e565b611301565b610b8e565b9050919050565b6000819050919050565b6113408361130b565b61135461134c8261132d565b8484546112af565b825550505050565b600090565b61136961135c565b611374818484611337565b505050565b5b818110156113985761138d600082611361565b60018101905061137a565b5050565b601f8211156113dd576113ae8161127d565b6113b784611292565b810160208510156113c6578190505b6113da6113d285611292565b830182611379565b50505b505050565b600082821c905092915050565b6000611400600019846008026113e2565b1980831691505092915050565b600061141983836113ef565b9150826002028217905092915050565b6114338383611243565b67ffffffffffffffff81111561144c5761144b61124e565b5b6114568254610fdb565b61146182828561139c565b6000601f831160018114611490576000841561147e578287013590505b611488858261140d565b8655506114f0565b601f19841661149e8661127d565b60005b828110156114c6578489013582556001820191506020850194506020810190506114a1565b868310156114e357848901356114df601f8916826113ef565b8355505b6001600288020188555050505b50505050505050565b82818337600083830152505050565b60006115148385610df0565b93506115218385846114f9565b61152a83610cdd565b840190509392505050565b60006040820190508181036000830152611550818587611508565b905061155f6020830184610c04565b949350505050565b600060608201905061157c6000830186610c04565b6115896020830185610de1565b6115966040830184610dd2565b949350505050565b60006115a982610b8e565b91506115b483610b8e565b92508282019050808211156115cc576115cb611160565b5b92915050565b6115db82610c97565b67ffffffffffffffff8111156115f4576115f361124e565b5b6115fe8254610fdb565b61160982828561139c565b600060209050601f83116001811461163c576000841561162a578287015190505b611634858261140d565b86555061169c565b601f19841661164a8661127d565b60005b828110156116725784890151825560018201915060208501945060208101905061164d565b8683101561168f578489015161168b601f8916826113ef565b8355505b6001600288020188555050505b505050505050565b60006020820190506116b96000830184610dd2565b9291505056fea2646970667358221220b3b89fe7118a024c4132903bcaca3515f28ff5c56ab8c9fd6021ba15d3ee61d464736f6c63430008130033",
  "linkReferences": {},
  "deployedLinkReferences": {}
}