{"abi":[{"type":"constructor","inputs":[],"stateMutability":"nonpayable"},{"type":"receive","stateMutability":"payable"},{"type":"function","name":"executeTransaction","inputs":[{"name":"to","type":"address","internalType":"address payable"},{"name":"value","type":"uint256","internalType":"uint256"},{"name":"data","type":"bytes","internalType":"bytes"},{"name":"pqSignature","type":"bytes","internalType":"bytes"}],"outputs":[],"stateMutability":"nonpayable"},{"type":"function","name":"owner","inputs":[],"outputs":[{"name":"","type":"address","internalType":"address"}],"stateMutability":"view"},{"type":"function","name":"pqAlgorithm","inputs":[],"outputs":[{"name":"","type":"uint8","internalType":"enum HybridWallet.Algorithm"}],"stateMutability":"view"},{"type":"function","name":"pqPublicKey","inputs":[],"outputs":[{"name":"","type":"bytes","internalType":"bytes"}],"stateMutability":"view"},{"type":"function","name":"registerPQKey","inputs":[{"name":"algo","type":"uint8","internalType":"enum HybridWallet.Algorithm"},{"name":"newPubKey","type":"bytes","internalType":"bytes"},{"name":"pqSignature","type":"bytes","internalType":"bytes"}],"outputs":[],"stateMutability":"nonpayable"},{"type":"function","name":"txNonce","inputs":[],"outputs":[{"name":"","type":"uint256","internalType":"uint256"}],"stateMutability":"view"},{"type":"event","name":"PQKeyRegistered","inputs":[{"name":"who","type":"address","indexed":true,"internalType":"address"},{"name":"algo","type":"uint8","indexed":false,"internalType":"enum HybridWallet.Algorithm"},{"name":"pubKey","type":"bytes","indexed":false,"internalType":"bytes"}],"anonymous":false},{"type":"event","name":"TransactionExecuted","inputs":[{"name":"who","type":"address","indexed":true,"internalType":"address"},{"name":"to","type":"address","indexed":false,"internalType":"address"},{"name":"value","type":"uint256","indexed":false,"internalType":"uint256"},{"name":"data","type":"bytes","indexed":false,"internalType":"bytes"}],"anonymous":false}],"bytecode":{"object":"0x608060405234801561000f575f80fd5b50335f806101000a81548173ffffffffffffffffffffffffffffffffffffffff021916908373ffffffffffffffffffffffffffffffffffffffff1602179055505f8060146101000a81548160ff0219169083600381111561007357610072610084565b5b02179055505f6002819055506100b1565b7f4e487b71000000000000000000000000000000000000000000000000000000005f52602160045260245ffd5b611815806100be5f395ff3fe608060405260043610610058575f3560e01c80632bbcf6a2146100635780634baf19651461008b5780638da5cb5b146100b357806398c577f9146100dd578063c66323e514610107578063c7b0c61a146101315761005f565b3661005f57005b5f80fd5b34801561006e575f80fd5b5061008960048036038101906100849190610b5c565b61015b565b005b348015610096575f80fd5b506100b160048036038101906100ac9190610c22565b610557565b005b3480156100be575f80fd5b506100c76108ee565b6040516100d49190610cd3565b60405180910390f35b3480156100e8575f80fd5b506100f1610911565b6040516100fe9190610d76565b60405180910390f35b348015610112575f80fd5b5061011b61099d565b6040516101289190610da5565b60405180910390f35b34801561013c575f80fd5b506101456109a3565b6040516101529190610e31565b60405180910390f35b5f8054906101000a900473ffffffffffffffffffffffffffffffffffffffff1673ffffffffffffffffffffffffffffffffffffffff163373ffffffffffffffffffffffffffffffffffffffff16146101e8576040517f08c379a00000000000000000000000000000000000000000000000000000000081526004016101df90610ea4565b60405180910390fd5b5f60038111156101fb576101fa610dbe565b5b5f60149054906101000a900460ff16600381111561021c5761021b610dbe565b5b0361025c576040517f08c379a000000000000000000000000000000000000000000000000000000000815260040161025390610f0c565b60405180910390fd5b5f82829050036102a1576040517f08c379a000000000000000000000000000000000000000000000000000000000815260040161029890610f74565b60405180910390fd5b5f30878787876040516102b5929190610fce565b60405180910390206002546040516020016102d495949392919061109c565b6040516020818303038152906040528051906020012090505f6103d25f60149054906101000a900460ff166001805461030c90611127565b80601f016020809104026020016040519081016040528092919081815260200182805461033890611127565b80156103835780601f1061035a57610100808354040283529160200191610383565b820191905f5260205f20905b81548152906001019060200180831161036657829003601f168201915b50505050508487878080601f0160208091040260200160405190810160405280939291908181526020018383808284375f81840152601f19601f820116905080830192505050505050506109b5565b905080610414576040517f08c379a000000000000000000000000000000000000000000000000000000000815260040161040b906111a1565b60405180910390fd5b5f8873ffffffffffffffffffffffffffffffffffffffff1688888860405161043d929190610fce565b5f6040518083038185875af1925050503d805f8114610477576040519150601f19603f3d011682016040523d82523d5f602084013e61047c565b606091505b50509050806104c0576040517f08c379a00000000000000000000000000000000000000000000000000000000081526004016104b790611209565b60405180910390fd5b600160025f8282546104d29190611254565b925050819055505f8054906101000a900473ffffffffffffffffffffffffffffffffffffffff1673ffffffffffffffffffffffffffffffffffffffff167f9b9454e35c96c025dbfe5fc6ac29b7e4595138f5bd9b8a84c26ef3b16660e0a08a8a8a8a604051610544949392919061130e565b60405180910390a2505050505050505050565b5f8054906101000a900473ffffffffffffffffffffffffffffffffffffffff1673ffffffffffffffffffffffffffffffffffffffff163373ffffffffffffffffffffffffffffffffffffffff16146105e4576040517f08c379a00000000000000000000000000000000000000000000000000000000081526004016105db90610ea4565b60405180910390fd5b5f60038111156105f7576105f6610dbe565b5b85600381111561060a57610609610dbe565b5b0361064a576040517f08c379a000000000000000000000000000000000000000000000000000000000815260040161064190611396565b60405180910390fd5b5f848490500361068f576040517f08c379a0000000000000000000000000000000000000000000000000000000008152600401610686906113fe565b60405180910390fd5b5f60038111156106a2576106a1610dbe565b5b5f60149054906101000a900460ff1660038111156106c3576106c2610dbe565b5b1461070e575f828290500361070d576040517f08c379a000000000000000000000000000000000000000000000000000000000815260040161070490611466565b60405180910390fd5b5b5f828290501461083b575f305f8054906101000a900473ffffffffffffffffffffffffffffffffffffffff1660405160200161074b929190611484565b6040516020818303038152906040528051906020012090505f6107f68787878080601f0160208091040260200160405190810160405280939291908181526020018383808284375f81840152601f19601f820116905080830192505050505050508487878080601f0160208091040260200160405190810160405280939291908181526020018383808284375f81840152601f19601f820116905080830192505050505050506109b5565b905080610838576040517f08c379a000000000000000000000000000000000000000000000000000000000815260040161082f906114f9565b60405180910390fd5b50505b845f60146101000a81548160ff0219169083600381111561085f5761085e610dbe565b5b02179055508383600191826108759291906116e2565b505f8054906101000a900473ffffffffffffffffffffffffffffffffffffffff1673ffffffffffffffffffffffffffffffffffffffff167fb4e407267688a76cf94c87f42e4c947c12ed055459bdd180487b24eae2bd0e2a8686866040516108df939291906117af565b60405180910390a25050505050565b5f8054906101000a900473ffffffffffffffffffffffffffffffffffffffff1681565b6001805461091e90611127565b80601f016020809104026020016040519081016040528092919081815260200182805461094a90611127565b80156109955780601f1061096c57610100808354040283529160200191610995565b820191905f5260205f20905b81548152906001019060200180831161097857829003601f168201915b505050505081565b60025481565b5f60149054906101000a900460ff1681565b5f600160038111156109ca576109c9610dbe565b5b8560038111156109dd576109dc610dbe565b5b036109f357828280519060200120149050610a5e565b60026003811115610a0757610a06610dbe565b5b856003811115610a1a57610a19610dbe565b5b03610a27575f9050610a5e565b600380811115610a3a57610a39610dbe565b5b856003811115610a4d57610a4c610dbe565b5b03610a5a575f9050610a5e565b5f90505b949350505050565b5f80fd5b5f80fd5b5f73ffffffffffffffffffffffffffffffffffffffff82169050919050565b5f610a9782610a6e565b9050919050565b610aa781610a8d565b8114610ab1575f80fd5b50565b5f81359050610ac281610a9e565b92915050565b5f819050919050565b610ada81610ac8565b8114610ae4575f80fd5b50565b5f81359050610af581610ad1565b92915050565b5f80fd5b5f80fd5b5f80fd5b5f8083601f840112610b1c57610b1b610afb565b5b8235905067ffffffffffffffff811115610b3957610b38610aff565b5b602083019150836001820283011115610b5557610b54610b03565b5b9250929050565b5f805f805f8060808789031215610b7657610b75610a66565b5b5f610b8389828a01610ab4565b9650506020610b9489828a01610ae7565b955050604087013567ffffffffffffffff811115610bb557610bb4610a6a565b5b610bc189828a01610b07565b9450945050606087013567ffffffffffffffff811115610be457610be3610a6a565b5b610bf089828a01610b07565b92509250509295509295509295565b60048110610c0b575f80fd5b50565b5f81359050610c1c81610bff565b92915050565b5f805f805f60608688031215610c3b57610c3a610a66565b5b5f610c4888828901610c0e565b955050602086013567ffffffffffffffff811115610c6957610c68610a6a565b5b610c7588828901610b07565b9450945050604086013567ffffffffffffffff811115610c9857610c97610a6a565b5b610ca488828901610b07565b92509250509295509295909350565b5f610cbd82610a6e565b9050919050565b610ccd81610cb3565b82525050565b5f602082019050610ce65f830184610cc4565b92915050565b5f81519050919050565b5f82825260208201905092915050565b5f5b83811015610d23578082015181840152602081019050610d08565b5f8484015250505050565b5f601f19601f8301169050919050565b5f610d4882610cec565b610d528185610cf6565b9350610d62818560208601610d06565b610d6b81610d2e565b840191505092915050565b5f6020820190508181035f830152610d8e8184610d3e565b905092915050565b610d9f81610ac8565b82525050565b5f602082019050610db85f830184610d96565b92915050565b7f4e487b71000000000000000000000000000000000000000000000000000000005f52602160045260245ffd5b60048110610dfc57610dfb610dbe565b5b50565b5f819050610e0c82610deb565b919050565b5f610e1b82610dff565b9050919050565b610e2b81610e11565b82525050565b5f602082019050610e445f830184610e22565b92915050565b5f82825260208201905092915050565b7f6f6e6c79206f776e6572000000000000000000000000000000000000000000005f82015250565b5f610e8e600a83610e4a565b9150610e9982610e5a565b602082019050919050565b5f6020820190508181035f830152610ebb81610e82565b9050919050565b7f6e6f205051206b657900000000000000000000000000000000000000000000005f82015250565b5f610ef6600983610e4a565b9150610f0182610ec2565b602082019050919050565b5f6020820190508181035f830152610f2381610eea565b9050919050565b7f6e6f2050512073696700000000000000000000000000000000000000000000005f82015250565b5f610f5e600983610e4a565b9150610f6982610f2a565b602082019050919050565b5f6020820190508181035f830152610f8b81610f52565b9050919050565b5f81905092915050565b828183375f83830152505050565b5f610fb58385610f92565b9350610fc2838584610f9c565b82840190509392505050565b5f610fda828486610faa565b91508190509392505050565b5f8160601b9050919050565b5f610ffc82610fe6565b9050919050565b5f61100d82610ff2565b9050919050565b61102561102082610cb3565b611003565b82525050565b5f61103582610ff2565b9050919050565b61104d61104882610a8d565b61102b565b82525050565b5f819050919050565b61106d61106882610ac8565b611053565b82525050565b5f819050919050565b5f819050919050565b61109661109182611073565b61107c565b82525050565b5f6110a78288611014565b6014820191506110b7828761103c565b6014820191506110c7828661105c565b6020820191506110d78285611085565b6020820191506110e7828461105c565b6020820191508190509695505050505050565b7f4e487b71000000000000000000000000000000000000000000000000000000005f52602260045260245ffd5b5f600282049050600182168061113e57607f821691505b602082108103611151576111506110fa565b5b50919050565b7f62616420505120736967000000000000000000000000000000000000000000005f82015250565b5f61118b600a83610e4a565b915061119682611157565b602082019050919050565b5f6020820190508181035f8301526111b88161117f565b9050919050565b7f63616c6c206661696c65640000000000000000000000000000000000000000005f82015250565b5f6111f3600b83610e4a565b91506111fe826111bf565b602082019050919050565b5f6020820190508181035f830152611220816111e7565b9050919050565b7f4e487b71000000000000000000000000000000000000000000000000000000005f52601160045260245ffd5b5f61125e82610ac8565b915061126983610ac8565b925082820190508082111561128157611280611227565b5b92915050565b5f819050919050565b5f6112aa6112a56112a084610a6e565b611287565b610a6e565b9050919050565b5f6112bb82611290565b9050919050565b5f6112cc826112b1565b9050919050565b6112dc816112c2565b82525050565b5f6112ed8385610cf6565b93506112fa838584610f9c565b61130383610d2e565b840190509392505050565b5f6060820190506113215f8301876112d3565b61132e6020830186610d96565b81810360408301526113418184866112e2565b905095945050505050565b7f616c676f3f0000000000000000000000000000000000000000000000000000005f82015250565b5f611380600583610e4a565b915061138b8261134c565b602082019050919050565b5f6020820190508181035f8301526113ad81611374565b9050919050565b7f6b65793f000000000000000000000000000000000000000000000000000000005f82015250565b5f6113e8600483610e4a565b91506113f3826113b4565b602082019050919050565b5f6020820190508181035f830152611415816113dc565b9050919050565b7f6e6565642070726f6f66000000000000000000000000000000000000000000005f82015250565b5f611450600a83610e4a565b915061145b8261141c565b602082019050919050565b5f6020820190508181035f83015261147d81611444565b9050919050565b5f61148f8285611014565b60148201915061149f8284611014565b6014820191508190509392505050565b7f6261642070726f6f6600000000000000000000000000000000000000000000005f82015250565b5f6114e3600983610e4a565b91506114ee826114af565b602082019050919050565b5f6020820190508181035f830152611510816114d7565b9050919050565b5f82905092915050565b7f4e487b71000000000000000000000000000000000000000000000000000000005f52604160045260245ffd5b5f819050815f5260205f209050919050565b5f6020601f8301049050919050565b5f82821b905092915050565b5f600883026115aa7fffffffffffffffffffffffffffffffffffffffffffffffffffffffffffffffff8261156f565b6115b4868361156f565b95508019841693508086168417925050509392505050565b5f6115e66115e16115dc84610ac8565b611287565b610ac8565b9050919050565b5f819050919050565b6115ff836115cc565b61161361160b826115ed565b84845461157b565b825550505050565b5f90565b61162761161b565b6116328184846115f6565b505050565b5b818110156116555761164a5f8261161f565b600181019050611638565b5050565b601f82111561169a5761166b8161154e565b61167484611560565b81016020851015611683578190505b61169761168f85611560565b830182611637565b50505b505050565b5f82821c905092915050565b5f6116ba5f198460080261169f565b1980831691505092915050565b5f6116d283836116ab565b9150826002028217905092915050565b6116ec8383611517565b67ffffffffffffffff81111561170557611704611521565b5b61170f8254611127565b61171a828285611659565b5f601f831160018114611747575f8415611735578287013590505b61173f85826116c7565b8655506117a6565b601f1984166117558661154e565b5f5b8281101561177c57848901358255600182019150602085019450602081019050611757565b868310156117995784890135611795601f8916826116ab565b8355505b6001600288020188555050505b50505050505050565b5f6040820190506117c25f830186610e22565b81810360208301526117d58184866112e2565b905094935050505056fea26469706673582212207d06b10f946560130f80e86848f3f5e2f6f0545bf0aeffcdcb04e59a1bc449b064736f6c63430008140033","linkReferences":{}},"methodIdentifiers":{"executeTransaction(address,uint256,bytes,bytes)":"2bbcf6a2","owner()":"8da5cb5b","pqAlgorithm()":"c7b0c61a","pqPublicKey()":"98c577f9","registerPQKey(uint8,bytes,bytes)":"4baf1965","txNonce()":"c66323e5"},"id":0}