{"contracts/SessionRootRegistry.sol":{"SessionRootRegistry":{"abi":[{"anonymous":false,"inputs":[{"indexed":true,"internalType":"bytes32","name":"rootHash","type":"bytes32"},{"indexed":false,"internalType":"string","name":"status","type":"string"},{"indexed":false,"internalType":"bytes32","name":"receiptHash","type":"bytes32"}],"name":"SessionAudited","type":"event"},{"anonymous":false,"inputs":[{"indexed":true,"internalType":"bytes32","name":"rootHash","type":"bytes32"},{"indexed":true,"internalType":"address","name":"creator","type":"address"},{"indexed":false,"internalType":"uint256","name":"expiry","type":"uint256"}],"name":"SessionRootSet","type":"event"},{"inputs":[{"internalType":"bytes32","name":"rootHash","type":"bytes32"}],"name":"getSessionRoot","outputs":[{"components":[{"internalType":"bytes32","name":"merkleRoot","type":"bytes32"},{"internalType":"uint256","name":"expiry","type":"uint256"},{"internalType":"uint256","name":"timestamp","type":"uint256"},{"internalType":"address","name":"creator","type":"address"},{"internalType":"bool","name":"active","type":"bool"},{"internalType":"string","name":"auditStatus","type":"string"}],"internalType":"struct SessionRootRegistry.SessionRoot","name":"","type":"tuple"}],"stateMutability":"view","type":"function"},{"inputs":[{"internalType":"bytes32","name":"","type":"bytes32"}],"name":"sessionRoots","outputs":[{"internalType":"bytes32","name":"merkleRoot","type":"bytes32"},{"internalType":"uint256","name":"expiry","type":"uint256"},{"internalType":"uint256","name":"timestamp","type":"uint256"},{"internalType":"address","name":"creator","type":"address"},{"internalType":"bool","name":"active","type":"bool"},{"internalType":"string","name":"auditStatus","type":"string"}],"stateMutability":"view","type":"function"},{"inputs":[{"internalType":"bytes32","name":"merkleRoot","type":"bytes32"},{"internalType":"uint256","name":"duration","type":"uint256"}],"name":"setSessionRoot","outputs":[],"stateMutability":"nonpayable","type":"function"},{"inputs":[{"internalType":"bytes32","name":"rootHash","type":"bytes32"},{"internalType":"string","name":"status","type":"string"},{"internalType":"bytes32","name":"receiptHash","type":"bytes32"}],"name":"updateAuditStatus","outputs":[],"stateMutability":"nonpayable","type":"function"},{"inputs":[{"internalType":"address","name":"","type":"address"},{"internalType":"uint256","name":"","type":"uint256"}],"name":"userSessions","outputs":[{"internalType":"bytes32","name":"","type":"bytes32"}],"stateMutability":"view","type":"function"},{"inputs":[{"internalType":"bytes32","name":"rootHash","type":"bytes32"},{"internalType":"bytes32","name":"leaf","type":"bytes32"},{"internalType":"bytes32[]","name":"merkleProof","type":"bytes32[]"}],"name":"validateInclusion","outputs":[{"internalType":"bool","name":"","type":"bool"}],"stateMutability":"view","type":"function"}],"evm":{"bytecode":{"linkReferences":{},"object":"608060405234801561001057600080fd5b506116f5806100206000396000f3fe608060405234801561001057600080fd5b50600436106100625760003560e01c806312adfb86146100675780636d597d13146100975780637a98134a146100c757806393cfd0e5146100f7578063d08693411461012c578063e7ac7e8114610148575b600080fd5b610081600480360381019061007c9190610a86565b610164565b60405161008e9190610b15565b60405180910390f35b6100b160048036038101906100ac9190610bc4565b6103ed565b6040516100be9190610c13565b60405180910390f35b6100e160048036038101906100dc9190610c2e565b61041e565b6040516100ee9190610db0565b60405180910390f35b610111600480360381019061010c9190610c2e565b61056b565b60405161012396959493929190610e3a565b60405180910390f35b61014660048036038101906101419190610ef8565b61065c565b005b610162600480360381019061015d9190610f6c565b610766565b005b6000806000808781526020019081526020016000206040518060c00160405290816000820154815260200160018201548152602001600282015481526020016003820160009054906101000a900473ffffffffffffffffffffffffffffffffffffffff1673ffffffffffffffffffffffffffffffffffffffff1673ffffffffffffffffffffffffffffffffffffffff1681526020016003820160149054906101000a900460ff1615151515815260200160048201805461022390610fdb565b80601f016020809104026020016040519081016040528092919081815260200182805461024f90610fdb565b801561029c5780601f106102715761010080835404028352916020019161029c565b820191906000526020600020905b81548152906001019060200180831161027f57829003601f168201915b505050505081525050905080608001516102eb576040517f08c379a00000000000000000000000000000000000000000000000000000000081526004016102e290611058565b60405180910390fd5b80602001514210610331576040517f08c379a0000000000000000000000000000000000000000000000000000000008152600401610328906110c4565b60405180910390fd5b600085905060005b858590508110156103d9576000868683818110610359576103586110e4565b5b90506020020135905080831161039957828160405160200161037c929190611134565b6040516020818303038152906040528051906020012092506103c5565b80836040516020016103ac929190611134565b6040516020818303038152906040528051906020012092505b5080806103d19061118f565b915050610339565b508160000151811492505050949350505050565b6001602052816000526040600020818154811061040957600080fd5b90600052602060002001600091509150505481565b610426610990565b6000808381526020019081526020016000206040518060c00160405290816000820154815260200160018201548152602001600282015481526020016003820160009054906101000a900473ffffffffffffffffffffffffffffffffffffffff1673ffffffffffffffffffffffffffffffffffffffff1673ffffffffffffffffffffffffffffffffffffffff1681526020016003820160149054906101000a900460ff161515151581526020016004820180546104e290610fdb565b80601f016020809104026020016040519081016040528092919081815260200182805461050e90610fdb565b801561055b5780601f106105305761010080835404028352916020019161055b565b820191906000526020600020905b81548152906001019060200180831161053e57829003601f168201915b5050505050815250509050919050565b60006020528060005260406000206000915090508060000154908060010154908060020154908060030160009054906101000a900473ffffffffffffffffffffffffffffffffffffffff16908060030160149054906101000a900460ff16908060040180546105d990610fdb565b80601f016020809104026020016040519081016040528092919081815260200182805461060590610fdb565b80156106525780601f1061062757610100808354040283529160200191610652565b820191906000526020600020905b81548152906001019060200180831161063557829003601f168201915b5050505050905086565b3373ffffffffffffffffffffffffffffffffffffffff1660008086815260200190815260200160002060030160009054906101000a900473ffffffffffffffffffffffffffffffffffffffff1673ffffffffffffffffffffffffffffffffffffffff16146106ff576040517f08c379a00000000000000000000000000000000000000000000000000000000081526004016106f690611223565b60405180910390fd5b82826000808781526020019081526020016000206004019182610723929190611429565b50837f9f44dae2188048a7f386c3a89b06ec8c61c6fc3d8c7b9eefcc20c75d5cb6756084848460405161075893929190611535565b60405180910390a250505050565b600082334260405160200161077d93929190611567565b6040516020818303038152906040528051906020012090506040518060c0016040528084815260200183426107b2919061159e565b81526020014281526020013373ffffffffffffffffffffffffffffffffffffffff1681526020016001151581526020016040518060400160405280600781526020017f70656e64696e670000000000000000000000000000000000000000000000000081525081525060008083815260200190815260200160002060008201518160000155602082015181600101556040820151816002015560608201518160030160006101000a81548173ffffffffffffffffffffffffffffffffffffffff021916908373ffffffffffffffffffffffffffffffffffffffff16021790555060808201518160030160146101000a81548160ff02191690831515021790555060a08201518160040190816108c791906115d2565b50905050600160003373ffffffffffffffffffffffffffffffffffffffff1673ffffffffffffffffffffffffffffffffffffffff1681526020019081526020016000208190806001815401808255809150506001900390600052602060002001600090919091909150553373ffffffffffffffffffffffffffffffffffffffff16817f30673d35c2111e21e53af67c772058b97b8d61b75a52072a9014f0edab8bb84b8442610976919061159e565b60405161098391906116a4565b60405180910390a3505050565b6040518060c00160405280600080191681526020016000815260200160008152602001600073ffffffffffffffffffffffffffffffffffffffff168152602001600015158152602001606081525090565b600080fd5b600080fd5b6000819050919050565b6109fe816109eb565b8114610a0957600080fd5b50565b600081359050610a1b816109f5565b92915050565b600080fd5b600080fd5b600080fd5b60008083601f840112610a4657610a45610a21565b5b8235905067ffffffffffffffff811115610a6357610a62610a26565b5b602083019150836020820283011115610a7f57610a7e610a2b565b5b9250929050565b60008060008060608587031215610aa057610a9f6109e1565b5b6000610aae87828801610a0c565b9450506020610abf87828801610a0c565b935050604085013567ffffffffffffffff811115610ae057610adf6109e6565b5b610aec87828801610a30565b925092505092959194509250565b60008115159050919050565b610b0f81610afa565b82525050565b6000602082019050610b2a6000830184610b06565b92915050565b600073ffffffffffffffffffffffffffffffffffffffff82169050919050565b6000610b5b82610b30565b9050919050565b610b6b81610b50565b8114610b7657600080fd5b50565b600081359050610b8881610b62565b92915050565b6000819050919050565b610ba181610b8e565b8114610bac57600080fd5b50565b600081359050610bbe81610b98565b92915050565b60008060408385031215610bdb57610bda6109e1565b5b6000610be985828601610b79565b9250506020610bfa85828601610baf565b9150509250929050565b610c0d816109eb565b82525050565b6000602082019050610c286000830184610c04565b92915050565b600060208284031215610c4457610c436109e1565b5b6000610c5284828501610a0c565b91505092915050565b610c64816109eb565b82525050565b610c7381610b8e565b82525050565b610c8281610b50565b82525050565b610c9181610afa565b82525050565b600081519050919050565b600082825260208201905092915050565b60005b83811015610cd1578082015181840152602081019050610cb6565b60008484015250505050565b6000601f19601f8301169050919050565b6000610cf982610c97565b610d038185610ca2565b9350610d13818560208601610cb3565b610d1c81610cdd565b840191505092915050565b600060c083016000830151610d3f6000860182610c5b565b506020830151610d526020860182610c6a565b506040830151610d656040860182610c6a565b506060830151610d786060860182610c79565b506080830151610d8b6080860182610c88565b5060a083015184820360a0860152610da38282610cee565b9150508091505092915050565b60006020820190508181036000830152610dca8184610d27565b905092915050565b610ddb81610b8e565b82525050565b610dea81610b50565b82525050565b600082825260208201905092915050565b6000610e0c82610c97565b610e168185610df0565b9350610e26818560208601610cb3565b610e2f81610cdd565b840191505092915050565b600060c082019050610e4f6000830189610c04565b610e5c6020830188610dd2565b610e696040830187610dd2565b610e766060830186610de1565b610e836080830185610b06565b81810360a0830152610e958184610e01565b9050979650505050505050565b60008083601f840112610eb857610eb7610a21565b5b8235905067ffffffffffffffff811115610ed557610ed4610a26565b5b602083019150836001820283011115610ef157610ef0610a2b565b5b9250929050565b60008060008060608587031215610f1257610f116109e1565b5b6000610f2087828801610a0c565b945050602085013567ffffffffffffffff811115610f4157610f406109e6565b5b610f4d87828801610ea2565b93509350506040610f6087828801610a0c565b91505092959194509250565b60008060408385031215610f8357610f826109e1565b5b6000610f9185828601610a0c565b9250506020610fa285828601610baf565b9150509250929050565b7f4e487b7100000000000000000000000000000000000000000000000000000000600052602260045260246000fd5b60006002820490506001821680610ff357607f821691505b60208210810361100657611005610fac565b5b50919050565b7f53657373696f6e206e6f74206163746976650000000000000000000000000000600082015250565b6000611042601283610df0565b915061104d8261100c565b602082019050919050565b6000602082019050818103600083015261107181611035565b9050919050565b7f53657373696f6e20657870697265640000000000000000000000000000000000600082015250565b60006110ae600f83610df0565b91506110b982611078565b602082019050919050565b600060208201905081810360008301526110dd816110a1565b9050919050565b7f4e487b7100000000000000000000000000000000000000000000000000000000600052603260045260246000fd5b6000819050919050565b61112e611129826109eb565b611113565b82525050565b6000611140828561111d565b602082019150611150828461111d565b6020820191508190509392505050565b7f4e487b7100000000000000000000000000000000000000000000000000000000600052601160045260246000fd5b600061119a82610b8e565b91507fffffffffffffffffffffffffffffffffffffffffffffffffffffffffffffffff82036111cc576111cb611160565b5b600182019050919050565b7f4e6f742073657373696f6e2063726561746f7200000000000000000000000000600082015250565b600061120d601383610df0565b9150611218826111d7565b602082019050919050565b6000602082019050818103600083015261123c81611200565b9050919050565b600082905092915050565b7f4e487b7100000000000000000000000000000000000000000000000000000000600052604160045260246000fd5b60008190508160005260206000209050919050565b60006020601f8301049050919050565b600082821b905092915050565b6000600883026112df7fffffffffffffffffffffffffffffffffffffffffffffffffffffffffffffffff826112a2565b6112e986836112a2565b95508019841693508086168417925050509392505050565b6000819050919050565b600061132661132161131c84610b8e565b611301565b610b8e565b9050919050565b6000819050919050565b6113408361130b565b61135461134c8261132d565b8484546112af565b825550505050565b600090565b61136961135c565b611374818484611337565b505050565b5b818110156113985761138d600082611361565b60018101905061137a565b5050565b601f8211156113dd576113ae8161127d565b6113b784611292565b810160208510156113c6578190505b6113da6113d285611292565b830182611379565b50505b505050565b600082821c905092915050565b6000611400600019846008026113e2565b1980831691505092915050565b600061141983836113ef565b9150826002028217905092915050565b6114338383611243565b67ffffffffffffffff81111561144c5761144b61124e565b5b6114568254610fdb565b61146182828561139c565b6000601f831160018114611490576000841561147e578287013590505b611488858261140d565b8655506114f0565b601f19841661149e8661127d565b60005b828110156114c6578489013582556001820191506020850194506020810190506114a1565b868310156114e357848901356114df601f8916826113ef565b8355505b6001600288020188555050505b50505050505050565b82818337600083830152505050565b60006115148385610df0565b93506115218385846114f9565b61152a83610cdd565b840190509392505050565b60006040820190508181036000830152611550818587611508565b905061155f6020830184610c04565b949350505050565b600060608201905061157c6000830186610c04565b6115896020830185610de1565b6115966040830184610dd2565b949350505050565b60006115a982610b8e565b91506115b483610b8e565b92508282019050808211156115cc576115cb611160565b5b92915050565b6115db82610c97565b67ffffffffffffffff8111156115f4576115f361124e565b5b6115fe8254610fdb565b61160982828561139c565b600060209050601f83116001811461163c576000841561162a578287015190505b611634858261140d565b86555061169c565b601f19841661164a8661127d565b60005b828110156116725784890151825560018201915060208501945060208101905061164d565b8683101561168f578489015161168b601f8916826113ef565b8355505b6001600288020188555050505b505050505050565b60006020820190506116b96000830184610dd2565b9291505056fea2646970667358221220b3b89fe7118a024c4132903bcaca3515f28ff5c56ab8c9fd6021ba15d3ee61d464736f6c63430008130033","opcodes":"PUSH1 0x80 PUSH1 0x40 MSTORE CALLVALUE DUP1 ISZERO PUSH2 0x10 JUMPI PUSH1 0x0 DUP1 REVERT JUMPDEST POP PUSH2 0x16F5 DUP1 PUSH2 0x20 PUSH1 0x0 CODECOPY PUSH1 0x0 RETURN INVALID PUSH1 0x80 PUSH1 0x40 MSTORE CALLVALUE DUP1 ISZERO PUSH2 0x10 JUMPI PUSH1 0x0 DUP1 REVERT JUMPDEST POP PUSH1 0x4 CALLDATASIZE LT PUSH2 0x62 JUMPI PUSH1 0x0 CALLDATALOAD PUSH1 0xE0 SHR DUP1 PUSH4 0x12ADFB86 EQ PUSH2 0x67 JUMPI DUP1 PUSH4 0x6D597D13 EQ PUSH2 0x97 JUMPI DUP1 PUSH4 0x7A98134A EQ PUSH2 0xC7 JUMPI DUP1 PUSH4 0x93CFD0E5 EQ PUSH2 0xF7 JUMPI DUP1 PUSH4 0xD0869341 EQ PUSH2 0x12C JUMPI DUP1 PUSH4 0xE7AC7E81 EQ PUSH2 0x148 JUMPI JUMPDEST PUSH1 0x0 DUP1 REVERT JUMPDEST PUSH2 0x81 PUSH1 0x4 DUP1 CALLDATASIZE SUB DUP2 ADD SWAP1 PUSH2 0x7C SWAP2 SWAP1 PUSH2 0xA86 JUMP JUMPDEST PUSH2 0x164 JUMP JUMPDEST PUSH1 0x40 MLOAD PUSH2 0x8E SWAP2 SWAP1 PUSH2 0xB15 JUMP JUMPDEST PUSH1 0x40 MLOAD DUP1 SWAP2 SUB SWAP1 RETURN JUMPDEST PUSH2 0xB1 PUSH1 0x4 DUP1 CALLDATASIZE SUB DUP2 ADD SWAP1 PUSH2 0xAC SWAP2 SWAP1 PUSH2 0xBC4 JUMP JUMPDEST PUSH2 0x3ED JUMP JUMPDEST PUSH1 0x40 MLOAD PUSH2 0xBE SWAP2 SWAP1 PUSH2 0xC13 JUMP JUMPDEST PUSH1 0x40 MLOAD DUP1 SWAP2 SUB SWAP1 RETURN JUMPDEST PUSH2 0xE1 PUSH1 0x4 DUP1 CALLDATASIZE SUB DUP2 ADD SWAP1 PUSH2 0xDC SWAP2 SWAP1 PUSH2 0xC2E JUMP JUMPDEST PUSH2 0x41E JUMP JUMPDEST PUSH1 0x40 MLOAD PUSH2 0xEE SWAP2 SWAP1 PUSH2 0xDB0 JUMP JUMPDEST PUSH1 0x40 MLOAD DUP1 SWAP2 SUB SWAP1 RETURN JUMPDEST PUSH2 0x111 PUSH1 0x4 DUP1 CALLDATASIZE SUB DUP2 ADD SWAP1 PUSH2 0x10C SWAP2 SWAP1 PUSH2 0xC2E JUMP JUMPDEST PUSH2 0x56B JUMP JUMPDEST PUSH1 0x40 MLOAD PUSH2 0x123 SWAP7 SWAP6 SWAP5 SWAP4 SWAP3 SWAP2 SWAP1 PUSH2 0xE3A JUMP JUMPDEST PUSH1 0x40 MLOAD DUP1 SWAP2 SUB SWAP1 RETURN JUMPDEST PUSH2 0x146 PUSH1 0x4 DUP1 CALLDATASIZE SUB DUP2 ADD SWAP1 PUSH2 0x141 SWAP2 SWAP1 PUSH2 0xEF8 JUMP JUMPDEST PUSH2 0x65C JUMP JUMPDEST STOP JUMPDEST PUSH2 0x162 PUSH1 0x4 DUP1 CALLDATASIZE SUB DUP2 ADD SWAP1 PUSH2 0x15D SWAP2 SWAP1 PUSH2 0xF6C JUMP JUMPDEST PUSH2 0x766 JUMP JUMPDEST STOP JUMPDEST PUSH1 0x0 DUP1 PUSH1 0x0 DUP1 DUP8 DUP2 MSTORE PUSH1 0x20 ADD SWAP1 DUP2 MSTORE PUSH1 0x20 ADD PUSH1 0x0 KECCAK256 PUSH1 0x40 MLOAD DUP1 PUSH1 0xC0 ADD PUSH1 0x40 MSTORE SWAP1 DUP2 PUSH1 0x0 DUP3 ADD SLOAD DUP2 MSTORE PUSH1 0x20 ADD PUSH1 0x1 DUP3 ADD SLOAD DUP2 MSTORE PUSH1 0x20 ADD PUSH1 0x2 DUP3 ADD SLOAD DUP2 MSTORE PUSH1 0x20 ADD PUSH1 0x3 DUP3 ADD PUSH1 0x0 SWAP1 SLOAD SWAP1 PUSH2 0x100 EXP SWAP1 DIV PUSH20 0xFFFFFFFFFFFFFFFFFFFFFFFFFFFFFFFFFFFFFFFF AND PUSH20 0xFFFFFFFFFFFFFFFFFFFFFFFFFFFFFFFFFFFFFFFF AND PUSH20 0xFFFFFFFFFFFFFFFFFFFFFFFFFFFFFFFFFFFFFFFF AND DUP2 MSTORE PUSH1 0x20 ADD PUSH1 0x3 DUP3 ADD PUSH1 0x14 SWAP1 SLOAD SWAP1 PUSH2 0x100 EXP SWAP1 DIV PUSH1 0xFF AND ISZERO ISZERO ISZERO ISZERO DUP2 MSTORE PUSH1 0x20 ADD PUSH1 0x4 DUP3 ADD DUP1 SLOAD PUSH2 0x223 SWAP1 PUSH2 0xFDB JUMP JUMPDEST DUP1 PUSH1 0x1F ADD PUSH1 0x20 DUP1 SWAP2 DIV MUL PUSH1 0x20 ADD PUSH1 0x40 MLOAD SWAP1 DUP2 ADD PUSH1 0x40 MSTORE DUP1 SWAP3 SWAP2 SWAP1 DUP2 DUP2 MSTORE PUSH1 0x20 ADD DUP3 DUP1 SLOAD PUSH2 0x24F SWAP1 PUSH2 0xFDB JUMP JUMPDEST DUP1 ISZERO PUSH2 0x29C JUMPI DUP1 PUSH1 0x1F LT PUSH2 0x271 JUMPI PUSH2 0x100 DUP1 DUP4 SLOAD DIV MUL DUP4 MSTORE SWAP2 PUSH1 0x20 ADD SWAP2 PUSH2 0x29C JUMP JUMPDEST DUP3 ADD SWAP2 SWAP1 PUSH1 0x0 MSTORE PUSH1 0x20 PUSH1 0x0 KECCAK256 SWAP1 JUMPDEST DUP2 SLOAD DUP2 MSTORE SWAP1 PUSH1 0x1 ADD SWAP1 PUSH1 0x20 ADD DUP1 DUP4 GT PUSH2 0x27F JUMPI DUP3 SWAP1 SUB PUSH1 0x1F AND DUP3 ADD SWAP2 JUMPDEST POP POP POP POP POP DUP2 MSTORE POP POP SWAP1 POP DUP1 PUSH1 0x80 ADD MLOAD PUSH2 0x2EB JUMPI PUSH1 0x40 MLOAD PUSH32 0x8C379A000000000000000000000000000000000000000000000000000000000 DUP2 MSTORE PUSH1 0x4 ADD PUSH2 0x2E2 SWAP1 PUSH2 0x1058 JUMP JUMPDEST PUSH1 0x40 MLOAD DUP1 SWAP2 SUB SWAP1 REVERT JUMPDEST DUP1 PUSH1 0x20 ADD MLOAD TIMESTAMP LT PUSH2 0x331 JUMPI PUSH1 0x40 MLOAD PUSH32 0x8C379A000000000000000000000000000000000000000000000000000000000 DUP2 MSTORE PUSH1 0x4 ADD PUSH2 0x328 SWAP1 PUSH2 0x10C4 JUMP JUMPDEST PUSH1 0x40 MLOAD DUP1 SWAP2 SUB SWAP1 REVERT JUMPDEST PUSH1 0x0 DUP6 SWAP1 POP PUSH1 0x0 JUMPDEST DUP6 DUP6 SWAP1 POP DUP2 LT ISZERO PUSH2 0x3D9 JUMPI PUSH1 0x0 DUP7 DUP7 DUP4 DUP2 DUP2 LT PUSH2 0x359 JUMPI PUSH2 0x358 PUSH2 0x10E4 JUMP JUMPDEST JUMPDEST SWAP1 POP PUSH1 0x20 MUL ADD CALLDATALOAD SWAP1 POP DUP1 DUP4 GT PUSH2 0x399 JUMPI DUP3 DUP2 PUSH1 0x40 MLOAD PUSH1 0x20 ADD PUSH2 0x37C SWAP3 SWAP2 SWAP1 PUSH2 0x1134 JUMP JUMPDEST PUSH1 0x40 MLOAD PUSH1 0x20 DUP2 DUP4 SUB SUB DUP2 MSTORE SWAP1 PUSH1 0x40 MSTORE DUP1 MLOAD SWAP1 PUSH1 0x20 ADD KECCAK256 SWAP3 POP PUSH2 0x3C5 JUMP JUMPDEST DUP1 DUP4 PUSH1 0x40 MLOAD PUSH1 0x20 ADD PUSH2 0x3AC SWAP3 SWAP2 SWAP1 PUSH2 0x1134 JUMP JUMPDEST PUSH1 0x40 MLOAD PUSH1 0x20 DUP2 DUP4 SUB SUB DUP2 MSTORE SWAP1 PUSH1 0x40 MSTORE DUP1 MLOAD SWAP1 PUSH1 0x20 ADD KECCAK256 SWAP3 POP JUMPDEST POP DUP1 DUP1 PUSH2 0x3D1 SWAP1 PUSH2 0x118F JUMP JUMPDEST SWAP2 POP POP PUSH2 0x339 JUMP JUMPDEST POP DUP2 PUSH1 0x0 ADD MLOAD DUP2 EQ SWAP3 POP POP POP SWAP5 SWAP4 POP POP POP POP JUMP JUMPDEST PUSH1 0x1 PUSH1 0x20 MSTORE DUP2 PUSH1 0x0 MSTORE PUSH1 0x40 PUSH1 0x0 KECCAK256 DUP2 DUP2 SLOAD DUP2 LT PUSH2 0x409 JUMPI PUSH1 0x0 DUP1 REVERT JUMPDEST SWAP1 PUSH1 0x0 MSTORE PUSH1 0x20 PUSH1 0x0 KECCAK256 ADD PUSH1 0x0 SWAP2 POP SWAP2 POP POP SLOAD DUP2 JUMP JUMPDEST PUSH2 0x426 PUSH2 0x990 JUMP JUMPDEST PUSH1 0x0 DUP1 DUP4 DUP2 MSTORE PUSH1 0x20 ADD SWAP1 DUP2 MSTORE PUSH1 0x20 ADD PUSH1 0x0 KECCAK256 PUSH1 0x40 MLOAD DUP1 PUSH1 0xC0 ADD PUSH1 0x40 MSTORE SWAP1 DUP2 PUSH1 0x0 DUP3 ADD SLOAD DUP2 MSTORE PUSH1 0x20 ADD PUSH1 0x1 DUP3 ADD SLOAD DUP2 MSTORE PUSH1 0x20 ADD PUSH1 0x2 DUP3 ADD SLOAD DUP2 MSTORE PUSH1 0x20 ADD PUSH1 0x3 DUP3 ADD PUSH1 0x0 SWAP1 SLOAD SWAP1 PUSH2 0x100 EXP SWAP1 DIV PUSH20 0xFFFFFFFFFFFFFFFFFFFFFFFFFFFFFFFFFFFFFFFF AND PUSH20 0xFFFFFFFFFFFFFFFFFFFFFFFFFFFFFFFFFFFFFFFF AND PUSH20 0xFFFFFFFFFFFFFFFFFFFFFFFFFFFFFFFFFFFFFFFF AND DUP2 MSTORE PUSH1 0x20 ADD PUSH1 0x3 DUP3 ADD PUSH1 0x14 SWAP1 SLOAD SWAP1 PUSH2 0x100 EXP SWAP1 DIV PUSH1 0xFF AND ISZERO ISZERO ISZERO ISZERO DUP2 MSTORE PUSH1 0x20 ADD PUSH1 0x4 DUP3 ADD DUP1 SLOAD PUSH2 0x4E2 SWAP1 PUSH2 0xFDB JUMP JUMPDEST DUP1 PUSH1 0x1F ADD PUSH1 0x20 DUP1 SWAP2 DIV MUL PUSH1 0x20 ADD PUSH1 0x40 MLOAD SWAP1 DUP2 ADD PUSH1 0x40 MSTORE DUP1 SWAP3 SWAP2 SWAP1 DUP2 DUP2 MSTORE PUSH1 0x20 ADD DUP3 DUP1 SLOAD PUSH2 0x50E SWAP1 PUSH2 0xFDB JUMP JUMPDEST DUP1 ISZERO PUSH2 0x55B JUMPI DUP1 PUSH1 0x1F LT PUSH2 0x530 JUMPI PUSH2 0x100 DUP1 DUP4 SLOAD DIV MUL DUP4 MSTORE SWAP2 PUSH1 0x20 ADD SWAP2 PUSH2 0x55B JUMP JUMPDEST DUP3 ADD SWAP2 SWAP1 PUSH1 0x0 MSTORE PUSH1 0x20 PUSH1 0x0 KECCAK256 SWAP1 JUMPDEST DUP2 SLOAD DUP2 MSTORE SWAP1 PUSH1 0x1 ADD SWAP1 PUSH1 0x20 ADD DUP1 DUP4 GT PUSH2 0x53E JUMPI DUP3 SWAP1 SUB PUSH1 0x1F AND DUP3 ADD SWAP2 JUMPDEST POP POP POP POP POP DUP2 MSTORE POP POP SWAP1 POP SWAP2 SWAP1 POP JUMP JUMPDEST PUSH1 0x0 PUSH1 0x20 MSTORE DUP1 PUSH1 0x0 MSTORE PUSH1 0x40 PUSH1 0x0 KECCAK256 PUSH1 0x0 SWAP2 POP SWAP1 POP DUP1 PUSH1 0x0 ADD SLOAD SWAP1 DUP1 PUSH1 0x1 ADD SLOAD SWAP1 DUP1 PUSH1 0x2 ADD SLOAD SWAP1 DUP1 PUSH1 0x3 ADD PUSH1 0x0 SWAP1 SLOAD SWAP1 PUSH2 0x100 EXP SWAP1 DIV PUSH20 0xFFFFFFFFFFFFFFFFFFFFFFFFFFFFFFFFFFFFFFFF AND SWAP1 DUP1 PUSH1 0x3 ADD PUSH1 0x14 SWAP1 SLOAD SWAP1 PUSH2 0x100 EXP SWAP1 DIV PUSH1 0xFF AND SWAP1 DUP1 PUSH1 0x4 ADD DUP1 SLOAD PUSH2 0x5D9 SWAP1 PUSH2 0xFDB JUMP JUMPDEST DUP1 PUSH1 0x1F ADD PUSH1 0x20 DUP1 SWAP2 DIV MUL PUSH1 0x20 ADD PUSH1 0x40 MLOAD SWAP1 DUP2 ADD PUSH1 0x40 MSTORE DUP1 SWAP3 SWAP2 SWAP1 DUP2 DUP2 MSTORE PUSH1 0x20 ADD DUP3 DUP1 SLOAD PUSH2 0x605 SWAP1 PUSH2 0xFDB JUMP JUMPDEST DUP1 ISZERO PUSH2 0x652 JUMPI DUP1 PUSH1 0x1F LT PUSH2 0x627 JUMPI PUSH2 0x100 DUP1 DUP4 SLOAD DIV MUL DUP4 MSTORE SWAP2 PUSH1 0x20 ADD SWAP2 PUSH2 0x652 JUMP JUMPDEST DUP3 ADD SWAP2 SWAP1 PUSH1 0x0 MSTORE PUSH1 0x20 PUSH1 0x0 KECCAK256 SWAP1 JUMPDEST DUP2 SLOAD DUP2 MSTORE SWAP1 PUSH1 0x1 ADD SWAP1 PUSH1 0x20 ADD DUP1 DUP4 GT PUSH2 0x635 JUMPI DUP3 SWAP1 SUB PUSH1 0x1F AND DUP3 ADD SWAP2 JUMPDEST POP POP POP POP POP SWAP1 POP DUP7 JUMP JUMPDEST CALLER PUSH20 0xFFFFFFFFFFFFFFFFFFFFFFFFFFFFFFFFFFFFFFFF AND PUSH1 0x0 DUP1 DUP7 DUP2 MSTORE PUSH1 0x20 ADD SWAP1 DUP2 MSTORE PUSH1 0x20 ADD PUSH1 0x0 KECCAK256 PUSH1 0x3 ADD PUSH1 0x0 SWAP1 SLOAD SWAP1 PUSH2 0x100 EXP SWAP1 DIV PUSH20 0xFFFFFFFFFFFFFFFFFFFFFFFFFFFFFFFFFFFFFFFF AND PUSH20 0xFFFFFFFFFFFFFFFFFFFFFFFFFFFFFFFFFFFFFFFF AND EQ PUSH2 0x6FF JUMPI PUSH1 0x40 MLOAD PUSH32 0x8C379A000000000000000000000000000000000000000000000000000000000 DUP2 MSTORE PUSH1 0x4 ADD PUSH2 0x6F6 SWAP1 PUSH2 0x1223 JUMP JUMPDEST PUSH1 0x40 MLOAD DUP1 SWAP2 SUB SWAP1 REVERT JUMPDEST DUP3 DUP3 PUSH1 0x0 DUP1 DUP8 DUP2 MSTORE PUSH1 0x20 ADD SWAP1 DUP2 MSTORE PUSH1 0x20 ADD PUSH1 0x0 KECCAK256 PUSH1 0x4 ADD SWAP2 DUP3 PUSH2 0x723 SWAP3 SWAP2 SWAP1 PUSH2 0x1429 JUMP JUMPDEST POP DUP4 PUSH32 0x9F44DAE2188048A7F386C3A89B06EC8C61C6FC3D8C7B9EEFCC20C75D5CB67560 DUP5 DUP5 DUP5 PUSH1 0x40 MLOAD PUSH2 0x758 SWAP4 SWAP3 SWAP2 SWAP1 PUSH2 0x1535 JUMP JUMPDEST PUSH1 0x40 MLOAD DUP1 SWAP2 SUB SWAP1 LOG2 POP POP POP POP JUMP JUMPDEST PUSH1 0x0 DUP3 CALLER TIMESTAMP PUSH1 0x40 MLOAD PUSH1 0x20 ADD PUSH2 0x77D SWAP4 SWAP3 SWAP2 SWAP1 PUSH2 0x1567 JUMP JUMPDEST PUSH1 0x40 MLOAD PUSH1 0x20 DUP2 DUP4 SUB SUB DUP2 MSTORE SWAP1 PUSH1 0x40 MSTORE DUP1 MLOAD SWAP1 PUSH1 0x20 ADD KECCAK256 SWAP1 POP PUSH1 0x40 MLOAD DUP1 PUSH1 0xC0 ADD PUSH1 0x40 MSTORE DUP1 DUP5 DUP2 MSTORE PUSH1 0x20 ADD DUP4 TIMESTAMP PUSH2 0x7B2 SWAP2 SWAP1 PUSH2 0x159E JUMP JUMPDEST DUP2 MSTORE PUSH1 0x20 ADD TIMESTAMP DUP2 MSTORE PUSH1 0x20 ADD CALLER PUSH20 0xFFFFFFFFFFFFFFFFFFFFFFFFFFFFFFFFFFFFFFFF AND DUP2 MSTORE PUSH1 0x20 ADD PUSH1 0x1 ISZERO ISZERO DUP2 MSTORE PUSH1 0x20 ADD PUSH1 0x40 MLOAD DUP1 PUSH1 0x40 ADD PUSH1 0x40 MSTORE DUP1 PUSH1 0x7 DUP2 MSTORE PUSH1 0x20 ADD PUSH32 0x70656E64696E6700000000000000000000000000000000000000000000000000 DUP2 MSTORE POP DUP2 MSTORE POP PUSH1 0x0 DUP1 DUP4 DUP2 MSTORE PUSH1 0x20 ADD SWAP1 DUP2 MSTORE PUSH1 0x20 ADD PUSH1 0x0 KECCAK256 PUSH1 0x0 DUP3 ADD MLOAD DUP2 PUSH1 0x0 ADD SSTORE PUSH1 0x20 DUP3 ADD MLOAD DUP2 PUSH1 0x1 ADD SSTORE PUSH1 0x40 DUP3 ADD MLOAD DUP2 PUSH1 0x2 ADD SSTORE PUSH1 0x60 DUP3 ADD MLOAD DUP2 PUSH1 0x3 ADD PUSH1 0x0 PUSH2 0x100 EXP DUP2 SLOAD DUP2 PUSH20 0xFFFFFFFFFFFFFFFFFFFFFFFFFFFFFFFFFFFFFFFF MUL NOT AND SWAP1 DUP4 PUSH20 0xFFFFFFFFFFFFFFFFFFFFFFFFFFFFFFFFFFFFFFFF AND MUL OR SWAP1 SSTORE POP PUSH1 0x80 DUP3 ADD MLOAD DUP2 PUSH1 0x3 ADD PUSH1 0x14 PUSH2 0x100 EXP DUP2 SLOAD DUP2 PUSH1 0xFF MUL NOT AND SWAP1 DUP4 ISZERO ISZERO MUL OR SWAP1 SSTORE POP PUSH1 0xA0 DUP3 ADD MLOAD DUP2 PUSH1 0x4 ADD SWAP1 DUP2 PUSH2 0x8C7 SWAP2 SWAP1 PUSH2 0x15D2 JUMP JUMPDEST POP SWAP1 POP POP PUSH1 0x1 PUSH1 0x0 CALLER PUSH20 0xFFFFFFFFFFFFFFFFFFFFFFFFFFFFFFFFFFFFFFFF AND PUSH20 0xFFFFFFFFFFFFFFFFFFFFFFFFFFFFFFFFFFFFFFFF AND DUP2 MSTORE PUSH1 0x20 ADD SWAP1 DUP2 MSTORE PUSH1 0x20 ADD PUSH1 0x0 KECCAK256 DUP2 SWAP1 DUP1 PUSH1 0x1 DUP2 SLOAD ADD DUP1 DUP3 SSTORE DUP1 SWAP2 POP POP PUSH1 0x1 SWAP1 SUB SWAP1 PUSH1 0x0 MSTORE PUSH1 0x20 PUSH1 0x0 KECCAK256 ADD PUSH1 0x0 SWAP1 SWAP2 SWAP1 SWAP2 SWAP1 SWAP2 POP SSTORE CALLER PUSH20 0xFFFFFFFFFFFFFFFFFFFFFFFFFFFFFFFFFFFFFFFF AND DUP2 PUSH32 0x30673D35C2111E21E53AF67C772058B97B8D61B75A52072A9014F0EDAB8BB84B DUP5 TIMESTAMP PUSH2 0x976 SWAP2 SWAP1 PUSH2 0x159E JUMP JUMPDEST PUSH1 0x40 MLOAD PUSH2 0x983 SWAP2 SWAP1 PUSH2 0x16A4 JUMP JUMPDEST PUSH1 0x40 MLOAD DUP1 SWAP2 SUB SWAP1 LOG3 POP POP POP JUMP JUMPDEST PUSH1 0x40 MLOAD DUP1 PUSH1 0xC0 ADD PUSH1 0x40 MSTORE DUP1 PUSH1 0x0 DUP1 NOT AND DUP2 MSTORE PUSH1 0x20 ADD PUSH1 0x0 DUP2 MSTORE PUSH1 0x20 ADD PUSH1 0x0 DUP2 MSTORE PUSH1 0x20 ADD PUSH1 0x0 PUSH20 0xFFFFFFFFFFFFFFFFFFFFFFFFFFFFFFFFFFFFFFFF AND DUP2 MSTORE PUSH1 0x20 ADD PUSH1 0x0 ISZERO ISZERO DUP2 MSTORE PUSH1 0x20 ADD PUSH1 0x60 DUP2 MSTORE POP SWAP1 JUMP JUMPDEST PUSH1 0x0 DUP1 REVERT JUMPDEST PUSH1 0x0 DUP1 REVERT JUMPDEST PUSH1 0x0 DUP2 SWAP1 POP SWAP2 SWAP1 POP JUMP JUMPDEST PUSH2 0x9FE DUP2 PUSH2 0x9EB JUMP JUMPDEST DUP2 EQ PUSH2 0xA09 JUMPI PUSH1 0x0 DUP1 REVERT JUMPDEST POP JUMP JUMPDEST PUSH1 0x0 DUP2 CALLDATALOAD SWAP1 POP PUSH2 0xA1B DUP2 PUSH2 0x9F5 JUMP JUMPDEST SWAP3 SWAP2 POP POP JUMP JUMPDEST PUSH1 0x0 DUP1 REVERT JUMPDEST PUSH1 0x0 DUP1 REVERT JUMPDEST PUSH1 0x0 DUP1 REVERT JUMPDEST PUSH1 0x0 DUP1 DUP4 PUSH1 0x1F DUP5 ADD SLT PUSH2 0xA46 JUMPI PUSH2 0xA45 PUSH2 0xA21 JUMP JUMPDEST JUMPDEST DUP3 CALLDATALOAD SWAP1 POP PUSH8 0xFFFFFFFFFFFFFFFF DUP2 GT ISZERO PUSH2 0xA63 JUMPI PUSH2 0xA62 PUSH2 0xA26 JUMP JUMPDEST JUMPDEST PUSH1 0x20 DUP4 ADD SWAP2 POP DUP4 PUSH1 0x20 DUP3 MUL DUP4 ADD GT ISZERO PUSH2 0xA7F JUMPI PUSH2 0xA7E PUSH2 0xA2B JUMP JUMPDEST JUMPDEST SWAP3 POP SWAP3 SWAP1 POP JUMP JUMPDEST PUSH1 0x0 DUP1 PUSH1 0x0 DUP1 PUSH1 0x60 DUP6 DUP8 SUB SLT ISZERO PUSH2 0xAA0 JUMPI PUSH2 0xA9F PUSH2 0x9E1 JUMP JUMPDEST JUMPDEST PUSH1 0x0 PUSH2 0xAAE DUP8 DUP3 DUP9 ADD PUSH2 0xA0C JUMP JUMPDEST SWAP5 POP POP PUSH1 0x20 PUSH2 0xABF DUP8 DUP3 DUP9 ADD PUSH2 0xA0C JUMP JUMPDEST SWAP4 POP POP PUSH1 0x40 DUP6 ADD CALLDATALOAD PUSH8 0xFFFFFFFFFFFFFFFF DUP2 GT ISZERO PUSH2 0xAE0 JUMPI PUSH2 0xADF PUSH2 0x9E6 JUMP JUMPDEST JUMPDEST PUSH2 0xAEC DUP8 DUP3 DUP9 ADD PUSH2 0xA30 JUMP JUMPDEST SWAP3 POP SWAP3 POP POP SWAP3 SWAP6 SWAP2 SWAP5 POP SWAP3 POP JUMP JUMPDEST PUSH1 0x0 DUP2 ISZERO ISZERO SWAP1 POP SWAP2 SWAP1 POP JUMP JUMPDEST PUSH2 0xB0F DUP2 PUSH2 0xAFA JUMP JUMPDEST DUP3 MSTORE POP POP JUMP JUMPDEST PUSH1 0x0 PUSH1 0x20 DUP3 ADD SWAP1 POP PUSH2 0xB2A PUSH1 0x0 DUP4 ADD DUP5 PUSH2 0xB06 JUMP JUMPDEST SWAP3 SWAP2 POP POP JUMP JUMPDEST PUSH1 0x0 PUSH20 0xFFFFFFFFFFFFFFFFFFFFFFFFFFFFFFFFFFFFFFFF DUP3 AND SWAP1 POP SWAP2 SWAP1 POP JUMP JUMPDEST PUSH1 0x0 PUSH2 0xB5B DUP3 PUSH2 0xB30 JUMP JUMPDEST SWAP1 POP SWAP2 SWAP1 POP JUMP JUMPDEST PUSH2 0xB6B DUP2 PUSH2 0xB50 JUMP JUMPDEST DUP2 EQ PUSH2 0xB76 JUMPI PUSH1 0x0 DUP1 REVERT JUMPDEST POP JUMP JUMPDEST PUSH1 0x0 DUP2 CALLDATALOAD SWAP1 POP PUSH2 0xB88 DUP2 PUSH2 0xB62 JUMP JUMPDEST SWAP3 SWAP2 POP POP JUMP JUMPDEST PUSH1 0x0 DUP2 SWAP1 POP SWAP2 SWAP1 POP JUMP JUMPDEST PUSH2 0xBA1 DUP2 PUSH2 0xB8E JUMP JUMPDEST DUP2 EQ PUSH2 0xBAC JUMPI PUSH1 0x0 DUP1 REVERT JUMPDEST POP JUMP JUMPDEST PUSH1 0x0 DUP2 CALLDATALOAD SWAP1 POP PUSH2 0xBBE DUP2 PUSH2 0xB98 JUMP JUMPDEST SWAP3 SWAP2 POP POP JUMP JUMPDEST PUSH1 0x0 DUP1 PUSH1 0x40 DUP4 DUP6 SUB SLT ISZERO PUSH2 0xBDB JUMPI PUSH2 0xBDA PUSH2 0x9E1 JUMP JUMPDEST JUMPDEST PUSH1 0x0 PUSH2 0xBE9 DUP6 DUP3 DUP7 ADD PUSH2 0xB79 JUMP JUMPDEST SWAP3 POP POP PUSH1 0x20 PUSH2 0xBFA DUP6 DUP3 DUP7 ADD PUSH2 0xBAF JUMP JUMPDEST SWAP2 POP POP SWAP3 POP SWAP3 SWAP1 POP JUMP JUMPDEST PUSH2 0xC0D DUP2 PUSH2 0x9EB JUMP JUMPDEST DUP3 MSTORE POP POP JUMP JUMPDEST PUSH1 0x0 PUSH1 0x20 DUP3 ADD SWAP1 POP PUSH2 0xC28 PUSH1 0x0 DUP4 ADD DUP5 PUSH2 0xC04 JUMP JUMPDEST SWAP3 SWAP2 POP POP JUMP JUMPDEST PUSH1 0x0 PUSH1 0x20 DUP3 DUP5 SUB SLT ISZERO PUSH2 0xC44 JUMPI PUSH2 0xC43 PUSH2 0x9E1 JUMP JUMPDEST JUMPDEST PUSH1 0x0 PUSH2 0xC52 DUP5 DUP3 DUP6 ADD PUSH2 0xA0C JUMP JUMPDEST SWAP2 POP POP SWAP3 SWAP2 POP POP JUMP JUMPDEST PUSH2 0xC64 DUP2 PUSH2 0x9EB JUMP JUMPDEST DUP3 MSTORE POP POP JUMP JUMPDEST PUSH2 0xC73 DUP2 PUSH2 0xB8E JUMP JUMPDEST DUP3 MSTORE POP POP JUMP JUMPDEST PUSH2 0xC82 DUP2 PUSH2 0xB50 JUMP JUMPDEST DUP3 MSTORE POP POP JUMP JUMPDEST PUSH2 0xC91 DUP2 PUSH2 0xAFA JUMP JUMPDEST DUP3 MSTORE POP POP JUMP JUMPDEST PUSH1 0x0 DUP2 MLOAD SWAP1 POP SWAP2 SWAP1 POP JUMP JUMPDEST PUSH1 0x0 DUP3 DUP3 MSTORE PUSH1 0x20 DUP3 ADD SWAP1 POP SWAP3 SWAP2 POP POP JUMP JUMPDEST PUSH1 0x0 JUMPDEST DUP4 DUP2 LT ISZERO PUSH2 0xCD1 JUMPI DUP1 DUP3 ADD MLOAD DUP2 DUP5 ADD MSTORE PUSH1 0x20 DUP2 ADD SWAP1 POP PUSH2 0xCB6 JUMP JUMPDEST PUSH1 0x0 DUP5 DUP5 ADD MSTORE POP POP POP POP JUMP JUMPDEST PUSH1 0x0 PUSH1 0x1F NOT PUSH1 0x1F DUP4 ADD AND SWAP1 POP SWAP2 SWAP1 POP JUMP JUMPDEST PUSH1 0x0 PUSH2 0xCF9 DUP3 PUSH2 0xC97 JUMP JUMPDEST PUSH2 0xD03 DUP2 DUP6 PUSH2 0xCA2 JUMP JUMPDEST SWAP4 POP PUSH2 0xD13 DUP2 DUP6 PUSH1 0x20 DUP7 ADD PUSH2 0xCB3 JUMP JUMPDEST PUSH2 0xD1C DUP2 PUSH2 0xCDD JUMP JUMPDEST DUP5 ADD SWAP2 POP POP SWAP3 SWAP2 POP POP JUMP JUMPDEST PUSH1 0x0 PUSH1 0xC0 DUP4 ADD PUSH1 0x0 DUP4 ADD MLOAD PUSH2 0xD3F PUSH1 0x0 DUP7 ADD DUP3 PUSH2 0xC5B JUMP JUMPDEST POP PUSH1 0x20 DUP4 ADD MLOAD PUSH2 0xD52 PUSH1 0x20 DUP7 ADD DUP3 PUSH2 0xC6A JUMP JUMPDEST POP PUSH1 0x40 DUP4 ADD MLOAD PUSH2 0xD65 PUSH1 0x40 DUP7 ADD DUP3 PUSH2 0xC6A JUMP JUMPDEST POP PUSH1 0x60 DUP4 ADD MLOAD PUSH2 0xD78 PUSH1 0x60 DUP7 ADD DUP3 PUSH2 0xC79 JUMP JUMPDEST POP PUSH1 0x80 DUP4 ADD MLOAD PUSH2 0xD8B PUSH1 0x80 DUP7 ADD DUP3 PUSH2 0xC88 JUMP JUMPDEST POP PUSH1 0xA0 DUP4 ADD MLOAD DUP5 DUP3 SUB PUSH1 0xA0 DUP7 ADD MSTORE PUSH2 0xDA3 DUP3 DUP3 PUSH2 0xCEE JUMP JUMPDEST SWAP2 POP POP DUP1 SWAP2 POP POP SWAP3 SWAP2 POP POP JUMP JUMPDEST PUSH1 0x0 PUSH1 0x20 DUP3 ADD SWAP1 POP DUP2 DUP2 SUB PUSH1 0x0 DUP4 ADD MSTORE PUSH2 0xDCA DUP2 DUP5 PUSH2 0xD27 JUMP JUMPDEST SWAP1 POP SWAP3 SWAP2 POP POP JUMP JUMPDEST PUSH2 0xDDB DUP2 PUSH2 0xB8E JUMP JUMPDEST DUP3 MSTORE POP POP JUMP JUMPDEST PUSH2 0xDEA DUP2 PUSH2 0xB50 JUMP JUMPDEST DUP3 MSTORE POP POP JUMP JUMPDEST PUSH1 0x0 DUP3 DUP3 MSTORE PUSH1 0x20 DUP3 ADD SWAP1 POP SWAP3 SWAP2 POP POP JUMP JUMPDEST PUSH1 0x0 PUSH2 0xE0C DUP3 PUSH2 0xC97 JUMP JUMPDEST PUSH2 0xE16 DUP2 DUP6 PUSH2 0xDF0 JUMP JUMPDEST SWAP4 POP PUSH2 0xE26 DUP2 DUP6 PUSH1 0x20 DUP7 ADD PUSH2 0xCB3 JUMP JUMPDEST PUSH2 0xE2F DUP2 PUSH2 0xCDD JUMP JUMPDEST DUP5 ADD SWAP2 POP POP SWAP3 SWAP2 POP POP JUMP JUMPDEST PUSH1 0x0 PUSH1 0xC0 DUP3 ADD SWAP1 POP PUSH2 0xE4F PUSH1 0x0 DUP4 ADD DUP10 PUSH2 0xC04 JUMP JUMPDEST PUSH2 0xE5C PUSH1 0x20 DUP4 ADD DUP9 PUSH2 0xDD2 JUMP JUMPDEST PUSH2 0xE69 PUSH1 0x40 DUP4 ADD DUP8 PUSH2 0xDD2 JUMP JUMPDEST PUSH2 0xE76 PUSH1 0x60 DUP4 ADD DUP7 PUSH2 0xDE1 JUMP JUMPDEST PUSH2 0xE83 PUSH1 0x80 DUP4 ADD DUP6 PUSH2 0xB06 JUMP JUMPDEST DUP2 DUP2 SUB PUSH1 0xA0 DUP4 ADD MSTORE PUSH2 0xE95 DUP2 DUP5 PUSH2 0xE01 JUMP JUMPDEST SWAP1 POP SWAP8 SWAP7 POP POP POP POP POP POP POP JUMP JUMPDEST PUSH1 0x0 DUP1 DUP4 PUSH1 0x1F DUP5 ADD SLT PUSH2 0xEB8 JUMPI PUSH2 0xEB7 PUSH2 0xA21 JUMP JUMPDEST JUMPDEST DUP3 CALLDATALOAD SWAP1 POP PUSH8 0xFFFFFFFFFFFFFFFF DUP2 GT ISZERO PUSH2 0xED5 JUMPI PUSH2 0xED4 PUSH2 0xA26 JUMP JUMPDEST JUMPDEST PUSH1 0x20 DUP4 ADD SWAP2 POP DUP4 PUSH1 0x1 DUP3 MUL DUP4 ADD GT ISZERO PUSH2 0xEF1 JUMPI PUSH2 0xEF0 PUSH2 0xA2B JUMP JUMPDEST JUMPDEST SWAP3 POP SWAP3 SWAP1 POP JUMP JUMPDEST PUSH1 0x0 DUP1 PUSH1 0x0 DUP1 PUSH1 0x60 DUP6 DUP8 SUB SLT ISZERO PUSH2 0xF12 JUMPI PUSH2 0xF11 PUSH2 0x9E1 JUMP JUMPDEST JUMPDEST PUSH1 0x0 PUSH2 0xF20 DUP8 DUP3 DUP9 ADD PUSH2 0xA0C JUMP JUMPDEST SWAP5 POP POP PUSH1 0x20 DUP6 ADD CALLDATALOAD PUSH8 0xFFFFFFFFFFFFFFFF DUP2 GT ISZERO PUSH2 0xF41 JUMPI PUSH2 0xF40 PUSH2 0x9E6 JUMP JUMPDEST JUMPDEST PUSH2 0xF4D DUP8 DUP3 DUP9 ADD PUSH2 0xEA2 JUMP JUMPDEST SWAP4 POP SWAP4 POP POP PUSH1 0x40 PUSH2 0xF60 DUP8 DUP3 DUP9 ADD PUSH2 0xA0C JUMP JUMPDEST SWAP2 POP POP SWAP3 SWAP6 SWAP2 SWAP5 POP SWAP3 POP JUMP JUMPDEST PUSH1 0x0 DUP1 PUSH1 0x40 DUP4 DUP6 SUB SLT ISZERO PUSH2 0xF83 JUMPI PUSH2 0xF82 PUSH2 0x9E1 JUMP JUMPDEST JUMPDEST PUSH1 0x0 PUSH2 0xF91 DUP6 DUP3 DUP7 ADD PUSH2 0xA0C JUMP JUMPDEST SWAP3 POP POP PUSH1 0x20 PUSH2 0xFA2 DUP6 DUP3 DUP7 ADD PUSH2 0xBAF JUMP JUMPDEST SWAP2 POP POP SWAP3 POP SWAP3 SWAP1 POP JUMP JUMPDEST PUSH32 0x4E487B7100000000000000000000000000000000000000000000000000000000 PUSH1 0x0 MSTORE PUSH1 0x22 PUSH1 0x4 MSTORE PUSH1 0x24 PUSH1 0x0 REVERT JUMPDEST PUSH1 0x0 PUSH1 0x2 DUP3 DIV SWAP1 POP PUSH1 0x1 DUP3 AND DUP1 PUSH2 0xFF3 JUMPI PUSH1 0x7F DUP3 AND SWAP2 POP JUMPDEST PUSH1 0x20 DUP3 LT DUP2 SUB PUSH2 0x1006 JUMPI PUSH2 0x1005 PUSH2 0xFAC JUMP JUMPDEST JUMPDEST POP SWAP2 SWAP1 POP JUMP JUMPDEST PUSH32 0x53657373696F6E206E6F74206163746976650000000000000000000000000000 PUSH1 0x0 DUP3 ADD MSTORE POP JUMP JUMPDEST PUSH1 0x0 PUSH2 0x1042 PUSH1 0x12 DUP4 PUSH2 0xDF0 JUMP JUMPDEST SWAP2 POP PUSH2 0x104D DUP3 PUSH2 0x100C JUMP JUMPDEST PUSH1 0x20 DUP3 ADD SWAP1 POP SWAP2 SWAP1 POP JUMP JUMPDEST PUSH1 0x0 PUSH1 0x20 DUP3 ADD SWAP1 POP DUP2 DUP2 SUB PUSH1 0x0 DUP4 ADD MSTORE PUSH2 0x1071 DUP2 PUSH2 0x1035 JUMP JUMPDEST SWAP1 POP SWAP2 SWAP1 POP JUMP JUMPDEST PUSH32 0x53657373696F6E20657870697265640000000000000000000000000000000000 PUSH1 0x0 DUP3 ADD MSTORE POP JUMP JUMPDEST PUSH1 0x0 PUSH2 0x10AE PUSH1 0xF DUP4 PUSH2 0xDF0 JUMP JUMPDEST SWAP2 POP PUSH2 0x10B9 DUP3 PUSH2 0x1078 JUMP JUMPDEST PUSH1 0x20 DUP3 ADD SWAP1 POP SWAP2 SWAP1 POP JUMP JUMPDEST PUSH1 0x0 PUSH1 0x20 DUP3 ADD SWAP1 POP DUP2 DUP2 SUB PUSH1 0x0 DUP4 ADD MSTORE PUSH2 0x10DD DUP2 PUSH2 0x10A1 JUMP JUMPDEST SWAP1 POP SWAP2 SWAP1 POP JUMP JUMPDEST PUSH32 0x4E487B7100000000000000000000000000000000000000000000000000000000 PUSH1 0x0 MSTORE PUSH1 0x32 PUSH1 0x4 MSTORE PUSH1 0x24 PUSH1 0x0 REVERT JUMPDEST PUSH1 0x0 DUP2 SWAP1 POP SWAP2 SWAP1 POP JUMP JUMPDEST PUSH2 0x112E PUSH2 0x1129 DUP3 PUSH2 0x9EB JUMP JUMPDEST PUSH2 0x1113 JUMP JUMPDEST DUP3 MSTORE POP POP JUMP JUMPDEST PUSH1 0x0 PUSH2 0x1140 DUP3 DUP6 PUSH2 0x111D JUMP JUMPDEST PUSH1 0x20 DUP3 ADD SWAP2 POP PUSH2 0x1150 DUP3 DUP5 PUSH2 0x111D JUMP JUMPDEST PUSH1 0x20 DUP3 ADD SWAP2 POP DUP2 SWAP1 POP SWAP4 SWAP3 POP POP POP JUMP JUMPDEST PUSH32 0x4E487B7100000000000000000000000000000000000000000000000000000000 PUSH1 0x0 MSTORE PUSH1 0x11 PUSH1 0x4 MSTORE PUSH1 0x24 PUSH1 0x0 REVERT JUMPDEST PUSH1 0x0 PUSH2 0x119A DUP3 PUSH2 0xB8E JUMP JUMPDEST SWAP2 POP PUSH32 0xFFFFFFFFFFFFFFFFFFFFFFFFFFFFFFFFFFFFFFFFFFFFFFFFFFFFFFFFFFFFFFFF DUP3 SUB PUSH2 0x11CC JUMPI PUSH2 0x11CB PUSH2 0x1160 JUMP JUMPDEST JUMPDEST PUSH1 0x1 DUP3 ADD SWAP1 POP SWAP2 SWAP1 POP JUMP JUMPDEST PUSH32 0x4E6F742073657373696F6E2063726561746F7200000000000000000000000000 PUSH1 0x0 DUP3 ADD MSTORE POP JUMP JUMPDEST PUSH1 0x0 PUSH2 0x120D PUSH1 0x13 DUP4 PUSH2 0xDF0 JUMP JUMPDEST SWAP2 POP PUSH2 0x1218 DUP3 PUSH2 0x11D7 JUMP JUMPDEST PUSH1 0x20 DUP3 ADD SWAP1 POP SWAP2 SWAP1 POP JUMP JUMPDEST PUSH1 0x0 PUSH1 0x20 DUP3 ADD SWAP1 POP DUP2 DUP2 SUB PUSH1 0x0 DUP4 ADD MSTORE PUSH2 0x123C DUP2 PUSH2 0x1200 JUMP JUMPDEST SWAP1 POP SWAP2 SWAP1 POP JUMP JUMPDEST PUSH1 0x0 DUP3 SWAP1 POP SWAP3 SWAP2 POP POP JUMP JUMPDEST PUSH32 0x4E487B7100000000000000000000000000000000000000000000000000000000 PUSH1 0x0 MSTORE PUSH1 0x41 PUSH1 0x4 MSTORE PUSH1 0x24 PUSH1 0x0 REVERT JUMPDEST PUSH1 0x0 DUP2 SWAP1 POP DUP2 PUSH1 0x0 MSTORE PUSH1 0x20 PUSH1 0x0 KECCAK256 SWAP1 POP SWAP2 SWAP1 POP JUMP JUMPDEST PUSH1 0x0 PUSH1 0x20 PUSH1 0x1F DUP4 ADD DIV SWAP1 POP SWAP2 SWAP1 POP JUMP JUMPDEST PUSH1 0x0 DUP3 DUP3 SHL SWAP1 POP SWAP3 SWAP2 POP POP JUMP JUMPDEST PUSH1 0x0 PUSH1 0x8 DUP4 MUL PUSH2 0x12DF PUSH32 0xFFFFFFFFFFFFFFFFFFFFFFFFFFFFFFFFFFFFFFFFFFFFFFFFFFFFFFFFFFFFFFFF DUP3 PUSH2 0x12A2 JUMP JUMPDEST PUSH2 0x12E9 DUP7 DUP4 PUSH2 0x12A2 JUMP JUMPDEST SWAP6 POP DUP1 NOT DUP5 AND SWAP4 POP DUP1 DUP7 AND DUP5 OR SWAP3 POP POP POP SWAP4 SWAP3 POP POP POP JUMP JUMPDEST PUSH1 0x0 DUP2 SWAP1 POP SWAP2 SWAP1 POP JUMP JUMPDEST PUSH1 0x0 PUSH2 0x1326 PUSH2 0x1321 PUSH2 0x131C DUP5 PUSH2 0xB8E JUMP JUMPDEST PUSH2 0x1301 JUMP JUMPDEST PUSH2 0xB8E JUMP JUMPDEST SWAP1 POP SWAP2 SWAP1 POP JUMP JUMPDEST PUSH1 0x0 DUP2 SWAP1 POP SWAP2 SWAP1 POP JUMP JUMPDEST PUSH2 0x1340 DUP4 PUSH2 0x130B JUMP JUMPDEST PUSH2 0x1354 PUSH2 0x134C DUP3 PUSH2 0x132D JUMP JUMPDEST DUP5 DUP5 SLOAD PUSH2 0x12AF JUMP JUMPDEST DUP3 SSTORE POP POP POP POP JUMP JUMPDEST PUSH1 0x0 SWAP1 JUMP JUMPDEST PUSH2 0x1369 PUSH2 0x135C JUMP JUMPDEST PUSH2 0x1374 DUP2 DUP5 DUP5 PUSH2 0x1337 JUMP JUMPDEST POP POP POP JUMP JUMPDEST JUMPDEST DUP2 DUP2 LT ISZERO PUSH2 0x1398 JUMPI PUSH2 0x138D PUSH1 0x0 DUP3 PUSH2 0x1361 JUMP JUMPDEST PUSH1 0x1 DUP2 ADD SWAP1 POP PUSH2 0x137A JUMP JUMPDEST POP POP JUMP JUMPDEST PUSH1 0x1F DUP3 GT ISZERO PUSH2 0x13DD JUMPI PUSH2 0x13AE DUP2 PUSH2 0x127D JUMP JUMPDEST PUSH2 0x13B7 DUP5 PUSH2 0x1292 JUMP JUMPDEST DUP2 ADD PUSH1 0x20 DUP6 LT ISZERO PUSH2 0x13C6 JUMPI DUP2 SWAP1 POP JUMPDEST PUSH2 0x13DA PUSH2 0x13D2 DUP6 PUSH2 0x1292 JUMP JUMPDEST DUP4 ADD DUP3 PUSH2 0x1379 JUMP JUMPDEST POP POP JUMPDEST POP POP POP JUMP JUMPDEST PUSH1 0x0 DUP3 DUP3 SHR SWAP1 POP SWAP3 SWAP2 POP POP JUMP JUMPDEST PUSH1 0x0 PUSH2 0x1400 PUSH1 0x0 NOT DUP5 PUSH1 0x8 MUL PUSH2 0x13E2 JUMP JUMPDEST NOT DUP1 DUP4 AND SWAP2 POP POP SWAP3 SWAP2 POP POP JUMP JUMPDEST PUSH1 0x0 PUSH2 0x1419 DUP4 DUP4 PUSH2 0x13EF JUMP JUMPDEST SWAP2 POP DUP3 PUSH1 0x2 MUL DUP3 OR SWAP1 POP SWAP3 SWAP2 POP POP JUMP JUMPDEST PUSH2 0x1433 DUP4 DUP4 PUSH2 0x1243 JUMP JUMPDEST PUSH8 0xFFFFFFFFFFFFFFFF DUP2 GT ISZERO PUSH2 0x144C JUMPI PUSH2 0x144B PUSH2 0x124E JUMP JUMPDEST JUMPDEST PUSH2 0x1456 DUP3 SLOAD PUSH2 0xFDB JUMP JUMPDEST PUSH2 0x1461 DUP3 DUP3 DUP6 PUSH2 0x139C JUMP JUMPDEST PUSH1 0x0 PUSH1 0x1F DUP4 GT PUSH1 0x1 DUP2 EQ PUSH2 0x1490 JUMPI PUSH1 0x0 DUP5 ISZERO PUSH2 0x147E JUMPI DUP3 DUP8 ADD CALLDATALOAD SWAP1 POP JUMPDEST PUSH2 0x1488 DUP6 DUP3 PUSH2 0x140D JUMP JUMPDEST DUP7 SSTORE POP PUSH2 0x14F0 JUMP JUMPDEST PUSH1 0x1F NOT DUP5 AND PUSH2 0x149E DUP7 PUSH2 0x127D JUMP JUMPDEST PUSH1 0x0 JUMPDEST DUP3 DUP2 LT ISZERO PUSH2 0x14C6 JUMPI DUP5 DUP10 ADD CALLDATALOAD DUP3 SSTORE PUSH1 0x1 DUP3 ADD SWAP2 POP PUSH1 0x20 DUP6 ADD SWAP5 POP PUSH1 0x20 DUP2 ADD SWAP1 POP PUSH2 0x14A1 JUMP JUMPDEST DUP7 DUP4 LT ISZERO PUSH2 0x14E3 JUMPI DUP5 DUP10 ADD CALLDATALOAD PUSH2 0x14DF PUSH1 0x1F DUP10 AND DUP3 PUSH2 0x13EF JUMP JUMPDEST DUP4 SSTORE POP JUMPDEST PUSH1 0x1 PUSH1 0x2 DUP9 MUL ADD DUP9 SSTORE POP POP POP JUMPDEST POP POP POP POP POP POP POP JUMP JUMPDEST DUP3 DUP2 DUP4 CALLDATACOPY PUSH1 0x0 DUP4 DUP4 ADD MSTORE POP POP POP JUMP JUMPDEST PUSH1 0x0 PUSH2 0x1514 DUP4 DUP6 PUSH2 0xDF0 JUMP JUMPDEST SWAP4 POP PUSH2 0x1521 DUP4 DUP6 DUP5 PUSH2 0x14F9 JUMP JUMPDEST PUSH2 0x152A DUP4 PUSH2 0xCDD JUMP JUMPDEST DUP5 ADD SWAP1 POP SWAP4 SWAP3 POP POP POP JUMP JUMPDEST PUSH1 0x0 PUSH1 0x40 DUP3 ADD SWAP1 POP DUP2 DUP2 SUB PUSH1 0x0 DUP4 ADD MSTORE PUSH2 0x1550 DUP2 DUP6 DUP8 PUSH2 0x1508 JUMP JUMPDEST SWAP1 POP PUSH2 0x155F PUSH1 0x20 DUP4 ADD DUP5 PUSH2 0xC04 JUMP JUMPDEST SWAP5 SWAP4 POP POP POP POP JUMP JUMPDEST PUSH1 0x0 PUSH1 0x60 DUP3 ADD SWAP1 POP PUSH2 0x157C PUSH1 0x0 DUP4 ADD DUP7 PUSH2 0xC04 JUMP JUMPDEST PUSH2 0x1589 PUSH1 0x20 DUP4 ADD DUP6 PUSH2 0xDE1 JUMP JUMPDEST PUSH2 0x1596 PUSH1 0x40 DUP4 ADD DUP5 PUSH2 0xDD2 JUMP JUMPDEST SWAP5 SWAP4 POP POP POP POP JUMP JUMPDEST PUSH1 0x0 PUSH2 0x15A9 DUP3 PUSH2 0xB8E JUMP JUMPDEST SWAP2 POP PUSH2 0x15B4 DUP4 PUSH2 0xB8E JUMP JUMPDEST SWAP3 POP DUP3 DUP3 ADD SWAP1 POP DUP1 DUP3 GT ISZERO PUSH2 0x15CC JUMPI PUSH2 0x15CB PUSH2 0x1160 JUMP JUMPDEST JUMPDEST SWAP3 SWAP2 POP POP JUMP JUMPDEST PUSH2 0x15DB DUP3 PUSH2 0xC97 JUMP JUMPDEST PUSH8 0xFFFFFFFFFFFFFFFF DUP2 GT ISZERO PUSH2 0x15F4 JUMPI PUSH2 0x15F3 PUSH2 0x124E JUMP JUMPDEST JUMPDEST PUSH2 0x15FE DUP3 SLOAD PUSH2 0xFDB JUMP JUMPDEST PUSH2 0x1609 DUP3 DUP3 DUP6 PUSH2 0x139C JUMP JUMPDEST PUSH1 0x0 PUSH1 0x20 SWAP1 POP PUSH1 0x1F DUP4 GT PUSH1 0x1 DUP2 EQ PUSH2 0x163C JUMPI PUSH1 0x0 DUP5 ISZERO PUSH2 0x162A JUMPI DUP3 DUP8 ADD MLOAD SWAP1 POP JUMPDEST PUSH2 0x1634 DUP6 DUP3 PUSH2 0x140D JUMP JUMPDEST DUP7 SSTORE POP PUSH2 0x169C JUMP JUMPDEST PUSH1 0x1F NOT DUP5 AND PUSH2 0x164A DUP7 PUSH2 0x127D JUMP JUMPDEST PUSH1 0x0 JUMPDEST DUP3 DUP2 LT ISZERO PUSH2 0x1672 JUMPI DUP5 DUP10 ADD MLOAD DUP3 SSTORE PUSH1 0x1 DUP3 ADD SWAP2 POP PUSH1 0x20 DUP6 ADD SWAP5 POP PUSH1 0x20 DUP2 ADD SWAP1 POP PUSH2 0x164D JUMP JUMPDEST DUP7 DUP4 LT ISZERO PUSH2 0x168F JUMPI DUP5 DUP10 ADD MLOAD PUSH2 0x168B PUSH1 0x1F DUP10 AND DUP3 PUSH2 0x13EF JUMP JUMPDEST DUP4 SSTORE POP JUMPDEST PUSH1 0x1 PUSH1 0x2 DUP9 MUL ADD DUP9 SSTORE POP POP POP JUMPDEST POP POP POP POP POP POP JUMP JUMPDEST PUSH1 0x0 PUSH1 0x20 DUP3 ADD SWAP1 POP PUSH2 0x16B9 PUSH1 0x0 DUP4 ADD DUP5 PUSH2 0xDD2 JUMP JUMPDEST SWAP3 SWAP2 POP POP JUMP INVALID LOG2 PUSH5 0x6970667358 0x22 SLT KECCAK256 0xB3 0xB8 SWAP16 0xE7 GT DUP11 MUL 0x4C COINBASE ORIGIN SWAP1 EXTCODESIZE 0xCA 0xCA CALLDATALOAD ISZERO CALLCODE DUP16 CREATE2 0xC5 PUSH11 0xB8C9FD6021BA15D3EE61D4 PUSH5 0x736F6C6343 STOP ADDMOD SGT STOP CALLER "},"methodIdentifiers":{"getSessionRoot(bytes32)":"7a98134a","sessionRoots(bytes32)":"93cfd0e5","setSessionRoot(bytes32,uint256)":"e7ac7e81","updateAuditStatus(bytes32,string,bytes32)":"d0869341","userSessions(address,uint256)":"6d597d13","validateInclusion(bytes32,bytes32,bytes32[])":"12adfb86"}}}}}