{"abi":[{"type":"function","name":"registerKey","inputs":[{"name":"publicKeyHash","type":"bytes32","internalType":"bytes32"}],"outputs":[],"stateMutability":"nonpayable"},{"type":"function","name":"registeredKeys","inputs":[{"name":"","type":"address","internalType":"address"}],"outputs":[{"name":"","type":"bytes32","internalType":"bytes32"}],"stateMutability":"view"},{"type":"function","name":"sendWithPQVerification","inputs":[{"name":"to","type":"address","internalType":"address"},{"name":"journal","type":"bytes","internalType":"bytes"},{"name":"seal","type":"bytes","internalType":"bytes"}],"outputs":[],"stateMutability":"payable"},{"type":"event","name":"KeyRegistered","inputs":[{"name":"user","type":"address","indexed":true,"internalType":"address"},{"name":"publicKeyHash","type":"bytes32","indexed":false,"internalType":"bytes32"}],"anonymous":false},{"type":"event","name":"TransactionVerified","inputs":[{"name":"user","type":"address","indexed":true,"internalType":"address"},{"name":"to","type":"address","indexed":false,"internalType":"address"},{"name":"amount","type":"uint256","indexed":false,"internalType":"uint256"},{"name":"pqVerified","type":"bool","indexed":false,"internalType":"bool"}],"anonymous":false}],"bytecode":{"object":"0x6080604052348015600e575f5ffd5b506106b78061001c5f395ff3fe608060405260043610610033575f3560e01c8063245eb6f514610037578063cd80557e14610073578063d5376c3d1461009b575b5f5ffd5b348015610042575f5ffd5b5061005d60048036038101906100589190610347565b6100b7565b60405161006a919061038a565b60405180910390f35b34801561007e575f5ffd5b50610099600480360381019061009491906103cd565b6100cb565b005b6100b560048036038101906100b09190610459565b61015d565b005b5f602052805f5260405f205f915090505481565b805f5f3373ffffffffffffffffffffffffffffffffffffffff1673ffffffffffffffffffffffffffffffffffffffff1681526020019081526020015f20819055503373ffffffffffffffffffffffffffffffffffffffff167fcb1f69407757b7d5aabce12361a8fb207a60608a4ce9dd8ba7ac8e6dea5260c182604051610152919061038a565b60405180910390a250565b5f5f1b5f5f3373ffffffffffffffffffffffffffffffffffffffff1673ffffffffffffffffffffffffffffffffffffffff1681526020019081526020015f2054036101dd576040517f08c379a00000000000000000000000000000000000000000000000000000000081526004016101d490610544565b60405180910390fd5b5f600190505f8673ffffffffffffffffffffffffffffffffffffffff16346040516102079061058f565b5f6040518083038185875af1925050503d805f8114610241576040519150601f19603f3d011682016040523d82523d5f602084013e610246565b606091505b505090508061028a576040517f08c379a0000000000000000000000000000000000000000000000000000000008152600401610281906105ed565b60405180910390fd5b3373ffffffffffffffffffffffffffffffffffffffff167f13a8cb41bff9cef64112e2a9edc10c6edfd8d9850437279499018eab1883861d8834856040516102d49392919061064c565b60405180910390a250505050505050565b5f5ffd5b5f5ffd5b5f73ffffffffffffffffffffffffffffffffffffffff82169050919050565b5f610316826102ed565b9050919050565b6103268161030c565b8114610330575f5ffd5b50565b5f813590506103418161031d565b92915050565b5f6020828403121561035c5761035b6102e5565b5b5f61036984828501610333565b91505092915050565b5f819050919050565b61038481610372565b82525050565b5f60208201905061039d5f83018461037b565b92915050565b6103ac81610372565b81146103b6575f5ffd5b50565b5f813590506103c7816103a3565b92915050565b5f602082840312156103e2576103e16102e5565b5b5f6103ef848285016103b9565b91505092915050565b5f5ffd5b5f5ffd5b5f5ffd5b5f5f83601f840112610419576104186103f8565b5b8235905067ffffffffffffffff811115610436576104356103fc565b5b60208301915083600182028301111561045257610451610400565b5b9250929050565b5f5f5f5f5f60608688031215610472576104716102e5565b5b5f61047f88828901610333565b955050602086013567ffffffffffffffff8111156104a05761049f6102e9565b5b6104ac88828901610404565b9450945050604086013567ffffffffffffffff8111156104cf576104ce6102e9565b5b6104db88828901610404565b92509250509295509295909350565b5f82825260208201905092915050565b7f4e6f205051206b657920726567697374657265640000000000000000000000005f82015250565b5f61052e6014836104ea565b9150610539826104fa565b602082019050919050565b5f6020820190508181035f83015261055b81610522565b9050919050565b5f81905092915050565b50565b5f61057a5f83610562565b91506105858261056c565b5f82019050919050565b5f6105998261056f565b9150819050919050565b7f455448207472616e73666572206661696c6564000000000000000000000000005f82015250565b5f6105d76013836104ea565b91506105e2826105a3565b602082019050919050565b5f6020820190508181035f830152610604816105cb565b9050919050565b6106148161030c565b82525050565b5f819050919050565b61062c8161061a565b82525050565b5f8115159050919050565b61064681610632565b82525050565b5f60608201905061065f5f83018661060b565b61066c6020830185610623565b610679604083018461063d565b94935050505056fea2646970667358221220f893ddfacb7fcfdd74a111751988fc48aa02c1e4115ce08431266dd26f6e6be564736f6c634300081e0033","linkReferences":{}},"methodIdentifiers":{"registerKey(bytes32)":"cd80557e","registeredKeys(address)":"245eb6f5","sendWithPQVerification(address,bytes,bytes)":"d5376c3d"},"id":16}